{
	"contracts/FundMe.sol": {
		"FundMe": {
			"abi": [
				{
					"inputs": [],
					"stateMutability": "nonpayable",
					"type": "constructor"
				},
				{
					"inputs": [],
					"name": "callFailed",
					"type": "error"
				},
				{
					"inputs": [],
					"name": "notEnoughUsd",
					"type": "error"
				},
				{
					"inputs": [],
					"name": "notOwner",
					"type": "error"
				},
				{
					"anonymous": false,
					"inputs": [
						{
							"indexed": false,
							"internalType": "address",
							"name": "sender",
							"type": "address"
						},
						{
							"indexed": false,
							"internalType": "uint256",
							"name": "value",
							"type": "uint256"
						},
						{
							"indexed": false,
							"internalType": "bytes",
							"name": "data",
							"type": "bytes"
						}
					],
					"name": "fallbackCalled",
					"type": "event"
				},
				{
					"anonymous": false,
					"inputs": [
						{
							"indexed": false,
							"internalType": "address",
							"name": "sender",
							"type": "address"
						},
						{
							"indexed": false,
							"internalType": "uint256",
							"name": "value",
							"type": "uint256"
						}
					],
					"name": "receiveCalled",
					"type": "event"
				},
				{
					"stateMutability": "payable",
					"type": "fallback"
				},
				{
					"inputs": [],
					"name": "MINIUM_USD",
					"outputs": [
						{
							"internalType": "uint256",
							"name": "",
							"type": "uint256"
						}
					],
					"stateMutability": "view",
					"type": "function"
				},
				{
					"inputs": [],
					"name": "OWNER",
					"outputs": [
						{
							"internalType": "address",
							"name": "",
							"type": "address"
						}
					],
					"stateMutability": "view",
					"type": "function"
				},
				{
					"inputs": [
						{
							"internalType": "address",
							"name": "",
							"type": "address"
						}
					],
					"name": "addressToAmountFunded",
					"outputs": [
						{
							"internalType": "uint256",
							"name": "",
							"type": "uint256"
						}
					],
					"stateMutability": "view",
					"type": "function"
				},
				{
					"inputs": [],
					"name": "fund",
					"outputs": [],
					"stateMutability": "payable",
					"type": "function"
				},
				{
					"inputs": [
						{
							"internalType": "uint256",
							"name": "",
							"type": "uint256"
						}
					],
					"name": "funders",
					"outputs": [
						{
							"internalType": "address",
							"name": "",
							"type": "address"
						}
					],
					"stateMutability": "view",
					"type": "function"
				},
				{
					"inputs": [],
					"name": "priceToUsd",
					"outputs": [
						{
							"internalType": "uint256",
							"name": "",
							"type": "uint256"
						}
					],
					"stateMutability": "view",
					"type": "function"
				},
				{
					"inputs": [],
					"name": "version",
					"outputs": [
						{
							"internalType": "uint256",
							"name": "",
							"type": "uint256"
						}
					],
					"stateMutability": "view",
					"type": "function"
				},
				{
					"inputs": [],
					"name": "withdraw",
					"outputs": [],
					"stateMutability": "nonpayable",
					"type": "function"
				},
				{
					"stateMutability": "payable",
					"type": "receive"
				}
			],
			"devdoc": {
				"kind": "dev",
				"methods": {},
				"version": 1
			},
			"evm": {
				"assembly": "    /* \"contracts/FundMe.sol\":173:2451  contract FundMe{... */\n  mstore(0x40, 0xa0)\n    /* \"contracts/FundMe.sol\":479:567  constructor() {... */\n  callvalue\n  dup1\n  iszero\n  tag_1\n  jumpi\n  0x00\n  dup1\n  revert\ntag_1:\n  pop\n    /* \"contracts/FundMe.sol\":511:521  msg.sender */\n  caller\n    /* \"contracts/FundMe.sol\":503:521  OWNER = msg.sender */\n  0xffffffffffffffffffffffffffffffffffffffff\n  and\n  0x80\n  dup2\n  0xffffffffffffffffffffffffffffffffffffffff\n  and\n  dup2\n  mstore\n  pop\n  pop\n    /* \"contracts/FundMe.sol\":173:2451  contract FundMe{... */\n  mload(0x80)\n  codecopy(0x00, dataOffset(sub_0), dataSize(sub_0))\n  0x00\n  assignImmutable(\"0xcdbc23227c72e0a3f4683bdbccfcbed38047ca1a70d48b78c210dc5393029019\")\n  return(0x00, dataSize(sub_0))\nstop\n\nsub_0: assembly {\n        /* \"contracts/FundMe.sol\":173:2451  contract FundMe{... */\n      mstore(0x40, 0x80)\n      jumpi(tag_1, lt(calldatasize, 0x04))\n      shr(0xe0, calldataload(0x00))\n      dup1\n      0x7f85c54e\n      gt\n      tag_11\n      jumpi\n      dup1\n      0x7f85c54e\n      eq\n      tag_7\n      jumpi\n      dup1\n      0x9b366b76\n      eq\n      tag_8\n      jumpi\n      dup1\n      0xb60d4288\n      eq\n      tag_9\n      jumpi\n      dup1\n      0xdc0d3dff\n      eq\n      tag_10\n      jumpi\n      jump(tag_2)\n    tag_11:\n      dup1\n      0x117803e3\n      eq\n      tag_3\n      jumpi\n      dup1\n      0x3ccfd60b\n      eq\n      tag_4\n      jumpi\n      dup1\n      0x3e47d6f3\n      eq\n      tag_5\n      jumpi\n      dup1\n      0x54fd4d50\n      eq\n      tag_6\n      jumpi\n      jump(tag_2)\n    tag_1:\n      jumpi(tag_2, calldatasize)\n        /* \"contracts/FundMe.sol\":2266:2301  receiveCalled(msg.sender,msg.value) */\n      0x18350d06b4a9ca0baf190b37f37fbe1be1cc0eaff14d7606af2f7f867eeb0d38\n        /* \"contracts/FundMe.sol\":2280:2290  msg.sender */\n      caller\n        /* \"contracts/FundMe.sol\":2291:2300  msg.value */\n      callvalue\n        /* \"contracts/FundMe.sol\":2266:2301  receiveCalled(msg.sender,msg.value) */\n      mload(0x40)\n      tag_14\n      swap3\n      swap2\n      swap1\n      tag_15\n      jump\t// in\n    tag_14:\n      mload(0x40)\n      dup1\n      swap2\n      sub\n      swap1\n      log1\n        /* \"contracts/FundMe.sol\":2311:2317  fund() */\n      tag_16\n        /* \"contracts/FundMe.sol\":2311:2315  fund */\n      tag_17\n        /* \"contracts/FundMe.sol\":2311:2317  fund() */\n      jump\t// in\n    tag_16:\n        /* \"contracts/FundMe.sol\":173:2451  contract FundMe{... */\n      stop\n    tag_2:\n        /* \"contracts/FundMe.sol\":2373:2418  fallbackCalled(msg.sender,msg.value,msg.data) */\n      0x7bf8121d238f1338d4842c396807cbe93f5a2396e2b3cad1639735997867b1f5\n        /* \"contracts/FundMe.sol\":2388:2398  msg.sender */\n      caller\n        /* \"contracts/FundMe.sol\":2399:2408  msg.value */\n      callvalue\n        /* \"contracts/FundMe.sol\":2409:2417  msg.data */\n      0x00\n      calldatasize\n        /* \"contracts/FundMe.sol\":2373:2418  fallbackCalled(msg.sender,msg.value,msg.data) */\n      mload(0x40)\n      tag_20\n      swap5\n      swap4\n      swap3\n      swap2\n      swap1\n      tag_21\n      jump\t// in\n    tag_20:\n      mload(0x40)\n      dup1\n      swap2\n      sub\n      swap1\n      log1\n        /* \"contracts/FundMe.sol\":2428:2434  fund() */\n      tag_22\n        /* \"contracts/FundMe.sol\":2428:2432  fund */\n      tag_17\n        /* \"contracts/FundMe.sol\":2428:2434  fund() */\n      jump\t// in\n    tag_22:\n        /* \"contracts/FundMe.sol\":173:2451  contract FundMe{... */\n      stop\n        /* \"contracts/FundMe.sol\":378:408  address public immutable OWNER */\n    tag_3:\n      callvalue\n      dup1\n      iszero\n      tag_23\n      jumpi\n      0x00\n      dup1\n      revert\n    tag_23:\n      pop\n      tag_24\n      tag_25\n      jump\t// in\n    tag_24:\n      mload(0x40)\n      tag_26\n      swap2\n      swap1\n      tag_27\n      jump\t// in\n    tag_26:\n      mload(0x40)\n      dup1\n      swap2\n      sub\n      swap1\n      return\n        /* \"contracts/FundMe.sol\":1278:2218  function withdraw() public onlyOWNER {... */\n    tag_4:\n      callvalue\n      dup1\n      iszero\n      tag_28\n      jumpi\n      0x00\n      dup1\n      revert\n    tag_28:\n      pop\n      tag_29\n      tag_30\n      jump\t// in\n    tag_29:\n      stop\n        /* \"contracts/FundMe.sol\":415:472  mapping (address => uint256) public addressToAmountFunded */\n    tag_5:\n      callvalue\n      dup1\n      iszero\n      tag_31\n      jumpi\n      0x00\n      dup1\n      revert\n    tag_31:\n      pop\n      tag_32\n      0x04\n      dup1\n      calldatasize\n      sub\n      dup2\n      add\n      swap1\n      tag_33\n      swap2\n      swap1\n      tag_34\n      jump\t// in\n    tag_33:\n      tag_35\n      jump\t// in\n    tag_32:\n      mload(0x40)\n      tag_36\n      swap2\n      swap1\n      tag_37\n      jump\t// in\n    tag_36:\n      mload(0x40)\n      dup1\n      swap2\n      sub\n      swap1\n      return\n        /* \"contracts/FundMe.sol\":286:308  uint256 public version */\n    tag_6:\n      callvalue\n      dup1\n      iszero\n      tag_38\n      jumpi\n      0x00\n      dup1\n      revert\n    tag_38:\n      pop\n      tag_39\n      tag_40\n      jump\t// in\n    tag_39:\n      mload(0x40)\n      tag_41\n      swap2\n      swap1\n      tag_37\n      jump\t// in\n    tag_41:\n      mload(0x40)\n      dup1\n      swap2\n      sub\n      swap1\n      return\n        /* \"contracts/FundMe.sol\":315:340  uint256 public priceToUsd */\n    tag_7:\n      callvalue\n      dup1\n      iszero\n      tag_42\n      jumpi\n      0x00\n      dup1\n      revert\n    tag_42:\n      pop\n      tag_43\n      tag_44\n      jump\t// in\n    tag_43:\n      mload(0x40)\n      tag_45\n      swap2\n      swap1\n      tag_37\n      jump\t// in\n    tag_45:\n      mload(0x40)\n      dup1\n      swap2\n      sub\n      swap1\n      return\n        /* \"contracts/FundMe.sol\":238:279  uint256 public constant MINIUM_USD = 1e18 */\n    tag_8:\n      callvalue\n      dup1\n      iszero\n      tag_46\n      jumpi\n      0x00\n      dup1\n      revert\n    tag_46:\n      pop\n      tag_47\n      tag_48\n      jump\t// in\n    tag_47:\n      mload(0x40)\n      tag_49\n      swap2\n      swap1\n      tag_37\n      jump\t// in\n    tag_49:\n      mload(0x40)\n      dup1\n      swap2\n      sub\n      swap1\n      return\n        /* \"contracts/FundMe.sol\":936:1272  function fund() public onlyOWNER payable {... */\n    tag_9:\n      tag_50\n      tag_17\n      jump\t// in\n    tag_50:\n      stop\n        /* \"contracts/FundMe.sol\":347:371  address[] public funders */\n    tag_10:\n      callvalue\n      dup1\n      iszero\n      tag_51\n      jumpi\n      0x00\n      dup1\n      revert\n    tag_51:\n      pop\n      tag_52\n      0x04\n      dup1\n      calldatasize\n      sub\n      dup2\n      add\n      swap1\n      tag_53\n      swap2\n      swap1\n      tag_54\n      jump\t// in\n    tag_53:\n      tag_55\n      jump\t// in\n    tag_52:\n      mload(0x40)\n      tag_56\n      swap2\n      swap1\n      tag_27\n      jump\t// in\n    tag_56:\n      mload(0x40)\n      dup1\n      swap2\n      sub\n      swap1\n      return\n        /* \"contracts/FundMe.sol\":936:1272  function fund() public onlyOWNER payable {... */\n    tag_17:\n        /* \"contracts/FundMe.sol\":724:729  OWNER */\n      immutable(\"0xcdbc23227c72e0a3f4683bdbccfcbed38047ca1a70d48b78c210dc5393029019\")\n        /* \"contracts/FundMe.sol\":710:729  msg.sender != OWNER */\n      0xffffffffffffffffffffffffffffffffffffffff\n      and\n        /* \"contracts/FundMe.sol\":710:720  msg.sender */\n      caller\n        /* \"contracts/FundMe.sol\":710:729  msg.sender != OWNER */\n      0xffffffffffffffffffffffffffffffffffffffff\n      and\n      eq\n        /* \"contracts/FundMe.sol\":706:751  if (msg.sender != OWNER) {revert notOwner();} */\n      tag_58\n      jumpi\n        /* \"contracts/FundMe.sol\":739:749  notOwner() */\n      mload(0x40)\n      0x251c9d6300000000000000000000000000000000000000000000000000000000\n      dup2\n      mstore\n      0x04\n      add\n      mload(0x40)\n      dup1\n      swap2\n      sub\n      swap1\n      revert\n        /* \"contracts/FundMe.sol\":706:751  if (msg.sender != OWNER) {revert notOwner();} */\n    tag_58:\n        /* \"contracts/FundMe.sol\":275:279  1e18 */\n      0x0de0b6b3a7640000\n        /* \"contracts/FundMe.sol\":990:1019  msg.value.getConversionRate() */\n      tag_60\n        /* \"contracts/FundMe.sol\":990:999  msg.value */\n      callvalue\n        /* \"contracts/FundMe.sol\":990:1017  msg.value.getConversionRate */\n      tag_61\n        /* \"contracts/FundMe.sol\":990:1019  msg.value.getConversionRate() */\n      jump\t// in\n    tag_60:\n        /* \"contracts/FundMe.sol\":990:1033  msg.value.getConversionRate() <= MINIUM_USD */\n      gt\n        /* \"contracts/FundMe.sol\":987:1081  if(msg.value.getConversionRate() <= MINIUM_USD) {... */\n      tag_62\n      jumpi\n        /* \"contracts/FundMe.sol\":1056:1070  notEnoughUsd() */\n      mload(0x40)\n      0xd9f7552c00000000000000000000000000000000000000000000000000000000\n      dup2\n      mstore\n      0x04\n      add\n      mload(0x40)\n      dup1\n      swap2\n      sub\n      swap1\n      revert\n        /* \"contracts/FundMe.sol\":987:1081  if(msg.value.getConversionRate() <= MINIUM_USD) {... */\n    tag_62:\n        /* \"contracts/FundMe.sol\":1090:1097  funders */\n      0x02\n        /* \"contracts/FundMe.sol\":1103:1113  msg.sender */\n      caller\n        /* \"contracts/FundMe.sol\":1090:1114  funders.push(msg.sender) */\n      swap1\n      dup1\n      0x01\n      dup2\n      sload\n      add\n      dup1\n      dup3\n      sstore\n      dup1\n      swap2\n      pop\n      pop\n      0x01\n      swap1\n      sub\n      swap1\n      0x00\n      mstore\n      keccak256(0x00, 0x20)\n      add\n      0x00\n      swap1\n      swap2\n      swap1\n      swap2\n      swap1\n      swap2\n      0x0100\n      exp\n      dup2\n      sload\n      dup2\n      0xffffffffffffffffffffffffffffffffffffffff\n      mul\n      not\n      and\n      swap1\n      dup4\n      0xffffffffffffffffffffffffffffffffffffffff\n      and\n      mul\n      or\n      swap1\n      sstore\n      pop\n        /* \"contracts/FundMe.sol\":1134:1161  priceConverter.getVersion() */\n      tag_64\n        /* \"contracts/FundMe.sol\":1134:1159  priceConverter.getVersion */\n      tag_65\n        /* \"contracts/FundMe.sol\":1134:1161  priceConverter.getVersion() */\n      jump\t// in\n    tag_64:\n        /* \"contracts/FundMe.sol\":1124:1131  version */\n      0x00\n        /* \"contracts/FundMe.sol\":1124:1161  version = priceConverter.getVersion() */\n      dup2\n      swap1\n      sstore\n      pop\n        /* \"contracts/FundMe.sol\":1184:1209  priceConverter.getPrice() */\n      tag_66\n        /* \"contracts/FundMe.sol\":1184:1207  priceConverter.getPrice */\n      tag_67\n        /* \"contracts/FundMe.sol\":1184:1209  priceConverter.getPrice() */\n      jump\t// in\n    tag_66:\n        /* \"contracts/FundMe.sol\":1171:1181  priceToUsd */\n      0x01\n        /* \"contracts/FundMe.sol\":1171:1209  priceToUsd = priceConverter.getPrice() */\n      dup2\n      swap1\n      sstore\n      pop\n        /* \"contracts/FundMe.sol\":1256:1265  msg.value */\n      callvalue\n        /* \"contracts/FundMe.sol\":1219:1240  addressToAmountFunded */\n      0x03\n        /* \"contracts/FundMe.sol\":1219:1252  addressToAmountFunded[msg.sender] */\n      0x00\n        /* \"contracts/FundMe.sol\":1241:1251  msg.sender */\n      caller\n        /* \"contracts/FundMe.sol\":1219:1252  addressToAmountFunded[msg.sender] */\n      0xffffffffffffffffffffffffffffffffffffffff\n      and\n      0xffffffffffffffffffffffffffffffffffffffff\n      and\n      dup2\n      mstore\n      0x20\n      add\n      swap1\n      dup2\n      mstore\n      0x20\n      add\n      0x00\n      keccak256\n      0x00\n        /* \"contracts/FundMe.sol\":1219:1265  addressToAmountFunded[msg.sender] += msg.value */\n      dup3\n      dup3\n      sload\n      tag_68\n      swap2\n      swap1\n      tag_69\n      jump\t// in\n    tag_68:\n      swap3\n      pop\n      pop\n      dup2\n      swap1\n      sstore\n      pop\n        /* \"contracts/FundMe.sol\":936:1272  function fund() public onlyOWNER payable {... */\n      jump\t// out\n        /* \"contracts/FundMe.sol\":378:408  address public immutable OWNER */\n    tag_25:\n      immutable(\"0xcdbc23227c72e0a3f4683bdbccfcbed38047ca1a70d48b78c210dc5393029019\")\n      dup2\n      jump\t// out\n        /* \"contracts/FundMe.sol\":1278:2218  function withdraw() public onlyOWNER {... */\n    tag_30:\n        /* \"contracts/FundMe.sol\":724:729  OWNER */\n      immutable(\"0xcdbc23227c72e0a3f4683bdbccfcbed38047ca1a70d48b78c210dc5393029019\")\n        /* \"contracts/FundMe.sol\":710:729  msg.sender != OWNER */\n      0xffffffffffffffffffffffffffffffffffffffff\n      and\n        /* \"contracts/FundMe.sol\":710:720  msg.sender */\n      caller\n        /* \"contracts/FundMe.sol\":710:729  msg.sender != OWNER */\n      0xffffffffffffffffffffffffffffffffffffffff\n      and\n      eq\n        /* \"contracts/FundMe.sol\":706:751  if (msg.sender != OWNER) {revert notOwner();} */\n      tag_71\n      jumpi\n        /* \"contracts/FundMe.sol\":739:749  notOwner() */\n      mload(0x40)\n      0x251c9d6300000000000000000000000000000000000000000000000000000000\n      dup2\n      mstore\n      0x04\n      add\n      mload(0x40)\n      dup1\n      swap2\n      sub\n      swap1\n      revert\n        /* \"contracts/FundMe.sol\":706:751  if (msg.sender != OWNER) {revert notOwner();} */\n    tag_71:\n        /* \"contracts/FundMe.sol\":1372:1391  uint256 funderIndex */\n      0x00\n        /* \"contracts/FundMe.sol\":1368:1549  for(uint256 funderIndex = 0;funderIndex < funders.length;funderIndex++ ){... */\n    tag_73:\n        /* \"contracts/FundMe.sol\":1410:1417  funders */\n      0x02\n        /* \"contracts/FundMe.sol\":1410:1424  funders.length */\n      dup1\n      sload\n      swap1\n      pop\n        /* \"contracts/FundMe.sol\":1396:1407  funderIndex */\n      dup2\n        /* \"contracts/FundMe.sol\":1396:1424  funderIndex < funders.length */\n      lt\n        /* \"contracts/FundMe.sol\":1368:1549  for(uint256 funderIndex = 0;funderIndex < funders.length;funderIndex++ ){... */\n      iszero\n      tag_74\n      jumpi\n        /* \"contracts/FundMe.sol\":1454:1468  address funder */\n      0x00\n        /* \"contracts/FundMe.sol\":1471:1478  funders */\n      0x02\n        /* \"contracts/FundMe.sol\":1479:1490  funderIndex */\n      dup3\n        /* \"contracts/FundMe.sol\":1471:1491  funders[funderIndex] */\n      dup2\n      sload\n      dup2\n      lt\n      tag_76\n      jumpi\n      tag_77\n      tag_78\n      jump\t// in\n    tag_77:\n    tag_76:\n      swap1\n      0x00\n      mstore\n      keccak256(0x00, 0x20)\n      add\n      0x00\n      swap1\n      sload\n      swap1\n      0x0100\n      exp\n      swap1\n      div\n      0xffffffffffffffffffffffffffffffffffffffff\n      and\n        /* \"contracts/FundMe.sol\":1454:1491  address funder = funders[funderIndex] */\n      swap1\n      pop\n        /* \"contracts/FundMe.sol\":1537:1538  0 */\n      0x00\n        /* \"contracts/FundMe.sol\":1505:1526  addressToAmountFunded */\n      0x03\n        /* \"contracts/FundMe.sol\":1505:1534  addressToAmountFunded[funder] */\n      0x00\n        /* \"contracts/FundMe.sol\":1527:1533  funder */\n      dup4\n        /* \"contracts/FundMe.sol\":1505:1534  addressToAmountFunded[funder] */\n      0xffffffffffffffffffffffffffffffffffffffff\n      and\n      0xffffffffffffffffffffffffffffffffffffffff\n      and\n      dup2\n      mstore\n      0x20\n      add\n      swap1\n      dup2\n      mstore\n      0x20\n      add\n      0x00\n      keccak256\n        /* \"contracts/FundMe.sol\":1505:1538  addressToAmountFunded[funder] = 0 */\n      dup2\n      swap1\n      sstore\n      pop\n        /* \"contracts/FundMe.sol\":1440:1549  {... */\n      pop\n        /* \"contracts/FundMe.sol\":1425:1438  funderIndex++ */\n      dup1\n      dup1\n      0x01\n      add\n      swap2\n      pop\n      pop\n        /* \"contracts/FundMe.sol\":1368:1549  for(uint256 funderIndex = 0;funderIndex < funders.length;funderIndex++ ){... */\n      jump(tag_73)\n    tag_74:\n      pop\n        /* \"contracts/FundMe.sol\":1619:1620  0 */\n      0x00\n        /* \"contracts/FundMe.sol\":1605:1621  new address[](0) */\n      0xffffffffffffffff\n      dup2\n      gt\n      iszero\n      tag_80\n      jumpi\n      tag_81\n      tag_82\n      jump\t// in\n    tag_81:\n    tag_80:\n      mload(0x40)\n      swap1\n      dup1\n      dup3\n      mstore\n      dup1\n      0x20\n      mul\n      0x20\n      add\n      dup3\n      add\n      0x40\n      mstore\n      dup1\n      iszero\n      tag_83\n      jumpi\n      dup2\n      0x20\n      add\n      0x20\n      dup3\n      mul\n      dup1\n      calldatasize\n      dup4\n      calldatacopy\n      dup1\n      dup3\n      add\n      swap2\n      pop\n      pop\n      swap1\n      pop\n    tag_83:\n      pop\n        /* \"contracts/FundMe.sol\":1595:1602  funders */\n      0x02\n        /* \"contracts/FundMe.sol\":1595:1621  funders = new address[](0) */\n      swap1\n      dup1\n      mload\n      swap1\n      0x20\n      add\n      swap1\n      tag_84\n      swap3\n      swap2\n      swap1\n      tag_85\n      jump\t// in\n    tag_84:\n      pop\n        /* \"contracts/FundMe.sol\":2062:2078  bool callSuccess */\n      0x00\n        /* \"contracts/FundMe.sol\":2092:2102  msg.sender */\n      caller\n        /* \"contracts/FundMe.sol\":2084:2108  payable(msg.sender).call */\n      0xffffffffffffffffffffffffffffffffffffffff\n      and\n        /* \"contracts/FundMe.sol\":2115:2136  address(this).balance */\n      selfbalance\n        /* \"contracts/FundMe.sol\":2084:2141  payable(msg.sender).call{value:address(this).balance}(\"\") */\n      mload(0x40)\n      tag_86\n      swap1\n      tag_87\n      jump\t// in\n    tag_86:\n      0x00\n      mload(0x40)\n      dup1\n      dup4\n      sub\n      dup2\n      dup6\n      dup8\n      gas\n      call\n      swap3\n      pop\n      pop\n      pop\n      returndatasize\n      dup1\n      0x00\n      dup2\n      eq\n      tag_90\n      jumpi\n      mload(0x40)\n      swap2\n      pop\n      and(add(returndatasize, 0x3f), not(0x1f))\n      dup3\n      add\n      0x40\n      mstore\n      returndatasize\n      dup3\n      mstore\n      returndatasize\n      0x00\n      0x20\n      dup5\n      add\n      returndatacopy\n      jump(tag_89)\n    tag_90:\n      0x60\n      swap2\n      pop\n    tag_89:\n      pop\n        /* \"contracts/FundMe.sol\":2061:2141  (bool callSuccess, ) = payable(msg.sender).call{value:address(this).balance}(\"\") */\n      pop\n      swap1\n      pop\n        /* \"contracts/FundMe.sol\":2156:2167  callSuccess */\n      dup1\n        /* \"contracts/FundMe.sol\":2151:2212  if (!callSuccess){... */\n      tag_91\n      jumpi\n        /* \"contracts/FundMe.sol\":2189:2201  callFailed() */\n      mload(0x40)\n      0x2bfecd3900000000000000000000000000000000000000000000000000000000\n      dup2\n      mstore\n      0x04\n      add\n      mload(0x40)\n      dup1\n      swap2\n      sub\n      swap1\n      revert\n        /* \"contracts/FundMe.sol\":2151:2212  if (!callSuccess){... */\n    tag_91:\n        /* \"contracts/FundMe.sol\":1315:2218  {... */\n      pop\n        /* \"contracts/FundMe.sol\":1278:2218  function withdraw() public onlyOWNER {... */\n      jump\t// out\n        /* \"contracts/FundMe.sol\":415:472  mapping (address => uint256) public addressToAmountFunded */\n    tag_35:\n      mstore(0x20, 0x03)\n      dup1\n      0x00\n      mstore\n      keccak256(0x00, 0x40)\n      0x00\n      swap2\n      pop\n      swap1\n      pop\n      sload\n      dup2\n      jump\t// out\n        /* \"contracts/FundMe.sol\":286:308  uint256 public version */\n    tag_40:\n      sload(0x00)\n      dup2\n      jump\t// out\n        /* \"contracts/FundMe.sol\":315:340  uint256 public priceToUsd */\n    tag_44:\n      sload(0x01)\n      dup2\n      jump\t// out\n        /* \"contracts/FundMe.sol\":238:279  uint256 public constant MINIUM_USD = 1e18 */\n    tag_48:\n        /* \"contracts/FundMe.sol\":275:279  1e18 */\n      0x0de0b6b3a7640000\n        /* \"contracts/FundMe.sol\":238:279  uint256 public constant MINIUM_USD = 1e18 */\n      dup2\n      jump\t// out\n        /* \"contracts/FundMe.sol\":347:371  address[] public funders */\n    tag_55:\n      0x02\n      dup2\n      dup2\n      sload\n      dup2\n      lt\n      tag_92\n      jumpi\n      0x00\n      dup1\n      revert\n    tag_92:\n      swap1\n      0x00\n      mstore\n      keccak256(0x00, 0x20)\n      add\n      0x00\n      swap2\n      pop\n      sload\n      swap1\n      0x0100\n      exp\n      swap1\n      div\n      0xffffffffffffffffffffffffffffffffffffffff\n      and\n      dup2\n      jump\t// out\n        /* \"contracts/priceConverter.sol\":495:713  function getConversionRate(uint256 ethAmount) internal view returns(uint256){... */\n    tag_61:\n        /* \"contracts/priceConverter.sol\":563:570  uint256 */\n      0x00\n        /* \"contracts/priceConverter.sol\":581:597  uint256 ethPrice */\n      dup1\n        /* \"contracts/priceConverter.sol\":600:610  getPrice() */\n      tag_95\n        /* \"contracts/priceConverter.sol\":600:608  getPrice */\n      tag_67\n        /* \"contracts/priceConverter.sol\":600:610  getPrice() */\n      jump\t// in\n    tag_95:\n        /* \"contracts/priceConverter.sol\":581:610  uint256 ethPrice = getPrice() */\n      swap1\n      pop\n        /* \"contracts/priceConverter.sol\":620:642  uint256 ethAmountInUsd */\n      0x00\n        /* \"contracts/priceConverter.sol\":670:674  1e18 */\n      0x0de0b6b3a7640000\n        /* \"contracts/priceConverter.sol\":657:666  ethAmount */\n      dup5\n        /* \"contracts/priceConverter.sol\":646:654  ethPrice */\n      dup4\n        /* \"contracts/priceConverter.sol\":646:666  ethPrice * ethAmount */\n      tag_96\n      swap2\n      swap1\n      tag_97\n      jump\t// in\n    tag_96:\n        /* \"contracts/priceConverter.sol\":645:674  (ethPrice * ethAmount) / 1e18 */\n      tag_98\n      swap2\n      swap1\n      tag_99\n      jump\t// in\n    tag_98:\n        /* \"contracts/priceConverter.sol\":620:674  uint256 ethAmountInUsd = (ethPrice * ethAmount) / 1e18 */\n      swap1\n      pop\n        /* \"contracts/priceConverter.sol\":691:705  ethAmountInUsd */\n      dup1\n        /* \"contracts/priceConverter.sol\":684:705  return ethAmountInUsd */\n      swap3\n      pop\n      pop\n      pop\n        /* \"contracts/priceConverter.sol\":495:713  function getConversionRate(uint256 ethAmount) internal view returns(uint256){... */\n      swap2\n      swap1\n      pop\n      jump\t// out\n        /* \"contracts/priceConverter.sol\":719:927  function getVersion() internal view returns(uint256){... */\n    tag_65:\n        /* \"contracts/priceConverter.sol\":763:770  uint256 */\n      0x00\n        /* \"contracts/priceConverter.sol\":781:814  AggregatorV3Interface v3Interface */\n      dup1\n        /* \"contracts/priceConverter.sol\":839:881  0x694AA1769357215DE4FAC081bf1f309aDC325306 */\n      0x694aa1769357215de4fac081bf1f309adc325306\n        /* \"contracts/priceConverter.sol\":781:882  AggregatorV3Interface v3Interface = AggregatorV3Interface(0x694AA1769357215DE4FAC081bf1f309aDC325306) */\n      swap1\n      pop\n        /* \"contracts/priceConverter.sol\":899:910  v3Interface */\n      dup1\n        /* \"contracts/priceConverter.sol\":899:918  v3Interface.version */\n      0xffffffffffffffffffffffffffffffffffffffff\n      and\n      0x54fd4d50\n        /* \"contracts/priceConverter.sol\":899:920  v3Interface.version() */\n      mload(0x40)\n      dup2\n      0xffffffff\n      and\n      0xe0\n      shl\n      dup2\n      mstore\n      0x04\n      add\n      0x20\n      mload(0x40)\n      dup1\n      dup4\n      sub\n      dup2\n      dup7\n      gas\n      staticcall\n      iszero\n      dup1\n      iszero\n      tag_102\n      jumpi\n      returndatasize\n      0x00\n      dup1\n      returndatacopy\n      revert(0x00, returndatasize)\n    tag_102:\n      pop\n      pop\n      pop\n      pop\n      mload(0x40)\n      returndatasize\n      not(0x1f)\n      0x1f\n      dup3\n      add\n      and\n      dup3\n      add\n      dup1\n      0x40\n      mstore\n      pop\n      dup2\n      add\n      swap1\n      tag_103\n      swap2\n      swap1\n      tag_104\n      jump\t// in\n    tag_103:\n        /* \"contracts/priceConverter.sol\":892:920  return v3Interface.version() */\n      swap2\n      pop\n      pop\n        /* \"contracts/priceConverter.sol\":719:927  function getVersion() internal view returns(uint256){... */\n      swap1\n      jump\t// out\n        /* \"contracts/priceConverter.sol\":202:489  function getPrice() internal view returns(uint256){... */\n    tag_67:\n        /* \"contracts/priceConverter.sol\":244:251  uint256 */\n      0x00\n        /* \"contracts/priceConverter.sol\":262:295  AggregatorV3Interface v3Interface */\n      dup1\n        /* \"contracts/priceConverter.sol\":320:362  0x694AA1769357215DE4FAC081bf1f309aDC325306 */\n      0x694aa1769357215de4fac081bf1f309adc325306\n        /* \"contracts/priceConverter.sol\":262:363  AggregatorV3Interface v3Interface = AggregatorV3Interface(0x694AA1769357215DE4FAC081bf1f309aDC325306) */\n      swap1\n      pop\n        /* \"contracts/priceConverter.sol\":375:387  int256 price */\n      0x00\n        /* \"contracts/priceConverter.sol\":394:405  v3Interface */\n      dup2\n        /* \"contracts/priceConverter.sol\":394:421  v3Interface.latestRoundData */\n      0xffffffffffffffffffffffffffffffffffffffff\n      and\n      0xfeaf968c\n        /* \"contracts/priceConverter.sol\":394:423  v3Interface.latestRoundData() */\n      mload(0x40)\n      dup2\n      0xffffffff\n      and\n      0xe0\n      shl\n      dup2\n      mstore\n      0x04\n      add\n      0xa0\n      mload(0x40)\n      dup1\n      dup4\n      sub\n      dup2\n      dup7\n      gas\n      staticcall\n      iszero\n      dup1\n      iszero\n      tag_107\n      jumpi\n      returndatasize\n      0x00\n      dup1\n      returndatacopy\n      revert(0x00, returndatasize)\n    tag_107:\n      pop\n      pop\n      pop\n      pop\n      mload(0x40)\n      returndatasize\n      not(0x1f)\n      0x1f\n      dup3\n      add\n      and\n      dup3\n      add\n      dup1\n      0x40\n      mstore\n      pop\n      dup2\n      add\n      swap1\n      tag_108\n      swap2\n      swap1\n      tag_109\n      jump\t// in\n    tag_108:\n        /* \"contracts/priceConverter.sol\":373:423  (,int256 price,,,) = v3Interface.latestRoundData() */\n      pop\n      pop\n      pop\n      swap2\n      pop\n      pop\n        /* \"contracts/priceConverter.sol\":477:481  1e10 */\n      0x02540be400\n        /* \"contracts/priceConverter.sol\":471:476  price */\n      dup2\n        /* \"contracts/priceConverter.sol\":471:481  price*1e10 */\n      tag_110\n      swap2\n      swap1\n      tag_111\n      jump\t// in\n    tag_110:\n        /* \"contracts/priceConverter.sol\":456:482  return uint256(price*1e10) */\n      swap3\n      pop\n      pop\n      pop\n        /* \"contracts/priceConverter.sol\":202:489  function getPrice() internal view returns(uint256){... */\n      swap1\n      jump\t// out\n    tag_85:\n      dup3\n      dup1\n      sload\n      dup3\n      dup3\n      sstore\n      swap1\n      0x00\n      mstore\n      keccak256(0x00, 0x20)\n      swap1\n      dup2\n      add\n      swap3\n      dup3\n      iszero\n      tag_112\n      jumpi\n      swap2\n      0x20\n      mul\n      dup3\n      add\n    tag_113:\n      dup3\n      dup2\n      gt\n      iszero\n      tag_114\n      jumpi\n      dup3\n      mload\n      dup3\n      exp(0x0100, 0x00)\n      dup2\n      sload\n      dup2\n      0xffffffffffffffffffffffffffffffffffffffff\n      mul\n      not\n      and\n      swap1\n      dup4\n      0xffffffffffffffffffffffffffffffffffffffff\n      and\n      mul\n      or\n      swap1\n      sstore\n      pop\n      swap2\n      0x20\n      add\n      swap2\n      swap1\n      0x01\n      add\n      swap1\n      jump(tag_113)\n    tag_114:\n    tag_112:\n      pop\n      swap1\n      pop\n      tag_115\n      swap2\n      swap1\n      tag_116\n      jump\t// in\n    tag_115:\n      pop\n      swap1\n      jump\t// out\n    tag_116:\n    tag_117:\n      dup1\n      dup3\n      gt\n      iszero\n      tag_118\n      jumpi\n      0x00\n      dup2\n      0x00\n      swap1\n      sstore\n      pop\n      0x01\n      add\n      jump(tag_117)\n    tag_118:\n      pop\n      swap1\n      jump\t// out\n        /* \"#utility.yul\":7:133   */\n    tag_119:\n        /* \"#utility.yul\":44:51   */\n      0x00\n        /* \"#utility.yul\":84:126   */\n      0xffffffffffffffffffffffffffffffffffffffff\n        /* \"#utility.yul\":77:82   */\n      dup3\n        /* \"#utility.yul\":73:127   */\n      and\n        /* \"#utility.yul\":62:127   */\n      swap1\n      pop\n        /* \"#utility.yul\":7:133   */\n      swap2\n      swap1\n      pop\n      jump\t// out\n        /* \"#utility.yul\":139:235   */\n    tag_120:\n        /* \"#utility.yul\":176:183   */\n      0x00\n        /* \"#utility.yul\":205:229   */\n      tag_150\n        /* \"#utility.yul\":223:228   */\n      dup3\n        /* \"#utility.yul\":205:229   */\n      tag_119\n      jump\t// in\n    tag_150:\n        /* \"#utility.yul\":194:229   */\n      swap1\n      pop\n        /* \"#utility.yul\":139:235   */\n      swap2\n      swap1\n      pop\n      jump\t// out\n        /* \"#utility.yul\":241:359   */\n    tag_121:\n        /* \"#utility.yul\":328:352   */\n      tag_152\n        /* \"#utility.yul\":346:351   */\n      dup2\n        /* \"#utility.yul\":328:352   */\n      tag_120\n      jump\t// in\n    tag_152:\n        /* \"#utility.yul\":323:326   */\n      dup3\n        /* \"#utility.yul\":316:353   */\n      mstore\n        /* \"#utility.yul\":241:359   */\n      pop\n      pop\n      jump\t// out\n        /* \"#utility.yul\":365:442   */\n    tag_122:\n        /* \"#utility.yul\":402:409   */\n      0x00\n        /* \"#utility.yul\":431:436   */\n      dup2\n        /* \"#utility.yul\":420:436   */\n      swap1\n      pop\n        /* \"#utility.yul\":365:442   */\n      swap2\n      swap1\n      pop\n      jump\t// out\n        /* \"#utility.yul\":448:566   */\n    tag_123:\n        /* \"#utility.yul\":535:559   */\n      tag_155\n        /* \"#utility.yul\":553:558   */\n      dup2\n        /* \"#utility.yul\":535:559   */\n      tag_122\n      jump\t// in\n    tag_155:\n        /* \"#utility.yul\":530:533   */\n      dup3\n        /* \"#utility.yul\":523:560   */\n      mstore\n        /* \"#utility.yul\":448:566   */\n      pop\n      pop\n      jump\t// out\n        /* \"#utility.yul\":572:904   */\n    tag_15:\n        /* \"#utility.yul\":693:697   */\n      0x00\n        /* \"#utility.yul\":731:733   */\n      0x40\n        /* \"#utility.yul\":720:729   */\n      dup3\n        /* \"#utility.yul\":716:734   */\n      add\n        /* \"#utility.yul\":708:734   */\n      swap1\n      pop\n        /* \"#utility.yul\":744:815   */\n      tag_157\n        /* \"#utility.yul\":812:813   */\n      0x00\n        /* \"#utility.yul\":801:810   */\n      dup4\n        /* \"#utility.yul\":797:814   */\n      add\n        /* \"#utility.yul\":788:794   */\n      dup6\n        /* \"#utility.yul\":744:815   */\n      tag_121\n      jump\t// in\n    tag_157:\n        /* \"#utility.yul\":825:897   */\n      tag_158\n        /* \"#utility.yul\":893:895   */\n      0x20\n        /* \"#utility.yul\":882:891   */\n      dup4\n        /* \"#utility.yul\":878:896   */\n      add\n        /* \"#utility.yul\":869:875   */\n      dup5\n        /* \"#utility.yul\":825:897   */\n      tag_123\n      jump\t// in\n    tag_158:\n        /* \"#utility.yul\":572:904   */\n      swap4\n      swap3\n      pop\n      pop\n      pop\n      jump\t// out\n        /* \"#utility.yul\":910:1078   */\n    tag_124:\n        /* \"#utility.yul\":993:1004   */\n      0x00\n        /* \"#utility.yul\":1027:1033   */\n      dup3\n        /* \"#utility.yul\":1022:1025   */\n      dup3\n        /* \"#utility.yul\":1015:1034   */\n      mstore\n        /* \"#utility.yul\":1067:1071   */\n      0x20\n        /* \"#utility.yul\":1062:1065   */\n      dup3\n        /* \"#utility.yul\":1058:1072   */\n      add\n        /* \"#utility.yul\":1043:1072   */\n      swap1\n      pop\n        /* \"#utility.yul\":910:1078   */\n      swap3\n      swap2\n      pop\n      pop\n      jump\t// out\n        /* \"#utility.yul\":1084:1230   */\n    tag_125:\n        /* \"#utility.yul\":1181:1187   */\n      dup3\n        /* \"#utility.yul\":1176:1179   */\n      dup2\n        /* \"#utility.yul\":1171:1174   */\n      dup4\n        /* \"#utility.yul\":1158:1188   */\n      calldatacopy\n        /* \"#utility.yul\":1222:1223   */\n      0x00\n        /* \"#utility.yul\":1213:1219   */\n      dup4\n        /* \"#utility.yul\":1208:1211   */\n      dup4\n        /* \"#utility.yul\":1204:1220   */\n      add\n        /* \"#utility.yul\":1197:1224   */\n      mstore\n        /* \"#utility.yul\":1084:1230   */\n      pop\n      pop\n      pop\n      jump\t// out\n        /* \"#utility.yul\":1236:1338   */\n    tag_126:\n        /* \"#utility.yul\":1277:1283   */\n      0x00\n        /* \"#utility.yul\":1328:1330   */\n      0x1f\n        /* \"#utility.yul\":1324:1331   */\n      not\n        /* \"#utility.yul\":1319:1321   */\n      0x1f\n        /* \"#utility.yul\":1312:1317   */\n      dup4\n        /* \"#utility.yul\":1308:1322   */\n      add\n        /* \"#utility.yul\":1304:1332   */\n      and\n        /* \"#utility.yul\":1294:1332   */\n      swap1\n      pop\n        /* \"#utility.yul\":1236:1338   */\n      swap2\n      swap1\n      pop\n      jump\t// out\n        /* \"#utility.yul\":1366:1680   */\n    tag_127:\n        /* \"#utility.yul\":1462:1465   */\n      0x00\n        /* \"#utility.yul\":1483:1553   */\n      tag_163\n        /* \"#utility.yul\":1546:1552   */\n      dup4\n        /* \"#utility.yul\":1541:1544   */\n      dup6\n        /* \"#utility.yul\":1483:1553   */\n      tag_124\n      jump\t// in\n    tag_163:\n        /* \"#utility.yul\":1476:1553   */\n      swap4\n      pop\n        /* \"#utility.yul\":1563:1619   */\n      tag_164\n        /* \"#utility.yul\":1612:1618   */\n      dup4\n        /* \"#utility.yul\":1607:1610   */\n      dup6\n        /* \"#utility.yul\":1600:1605   */\n      dup5\n        /* \"#utility.yul\":1563:1619   */\n      tag_125\n      jump\t// in\n    tag_164:\n        /* \"#utility.yul\":1644:1673   */\n      tag_165\n        /* \"#utility.yul\":1666:1672   */\n      dup4\n        /* \"#utility.yul\":1644:1673   */\n      tag_126\n      jump\t// in\n    tag_165:\n        /* \"#utility.yul\":1639:1642   */\n      dup5\n        /* \"#utility.yul\":1635:1674   */\n      add\n        /* \"#utility.yul\":1628:1674   */\n      swap1\n      pop\n        /* \"#utility.yul\":1366:1680   */\n      swap4\n      swap3\n      pop\n      pop\n      pop\n      jump\t// out\n        /* \"#utility.yul\":1686:2235   */\n    tag_21:\n        /* \"#utility.yul\":1863:1867   */\n      0x00\n        /* \"#utility.yul\":1901:1903   */\n      0x60\n        /* \"#utility.yul\":1890:1899   */\n      dup3\n        /* \"#utility.yul\":1886:1904   */\n      add\n        /* \"#utility.yul\":1878:1904   */\n      swap1\n      pop\n        /* \"#utility.yul\":1914:1985   */\n      tag_167\n        /* \"#utility.yul\":1982:1983   */\n      0x00\n        /* \"#utility.yul\":1971:1980   */\n      dup4\n        /* \"#utility.yul\":1967:1984   */\n      add\n        /* \"#utility.yul\":1958:1964   */\n      dup8\n        /* \"#utility.yul\":1914:1985   */\n      tag_121\n      jump\t// in\n    tag_167:\n        /* \"#utility.yul\":1995:2067   */\n      tag_168\n        /* \"#utility.yul\":2063:2065   */\n      0x20\n        /* \"#utility.yul\":2052:2061   */\n      dup4\n        /* \"#utility.yul\":2048:2066   */\n      add\n        /* \"#utility.yul\":2039:2045   */\n      dup7\n        /* \"#utility.yul\":1995:2067   */\n      tag_123\n      jump\t// in\n    tag_168:\n        /* \"#utility.yul\":2114:2123   */\n      dup2\n        /* \"#utility.yul\":2108:2112   */\n      dup2\n        /* \"#utility.yul\":2104:2124   */\n      sub\n        /* \"#utility.yul\":2099:2101   */\n      0x40\n        /* \"#utility.yul\":2088:2097   */\n      dup4\n        /* \"#utility.yul\":2084:2102   */\n      add\n        /* \"#utility.yul\":2077:2125   */\n      mstore\n        /* \"#utility.yul\":2142:2228   */\n      tag_169\n        /* \"#utility.yul\":2223:2227   */\n      dup2\n        /* \"#utility.yul\":2214:2220   */\n      dup5\n        /* \"#utility.yul\":2206:2212   */\n      dup7\n        /* \"#utility.yul\":2142:2228   */\n      tag_127\n      jump\t// in\n    tag_169:\n        /* \"#utility.yul\":2134:2228   */\n      swap1\n      pop\n        /* \"#utility.yul\":1686:2235   */\n      swap6\n      swap5\n      pop\n      pop\n      pop\n      pop\n      pop\n      jump\t// out\n        /* \"#utility.yul\":2241:2463   */\n    tag_27:\n        /* \"#utility.yul\":2334:2338   */\n      0x00\n        /* \"#utility.yul\":2372:2374   */\n      0x20\n        /* \"#utility.yul\":2361:2370   */\n      dup3\n        /* \"#utility.yul\":2357:2375   */\n      add\n        /* \"#utility.yul\":2349:2375   */\n      swap1\n      pop\n        /* \"#utility.yul\":2385:2456   */\n      tag_171\n        /* \"#utility.yul\":2453:2454   */\n      0x00\n        /* \"#utility.yul\":2442:2451   */\n      dup4\n        /* \"#utility.yul\":2438:2455   */\n      add\n        /* \"#utility.yul\":2429:2435   */\n      dup5\n        /* \"#utility.yul\":2385:2456   */\n      tag_121\n      jump\t// in\n    tag_171:\n        /* \"#utility.yul\":2241:2463   */\n      swap3\n      swap2\n      pop\n      pop\n      jump\t// out\n        /* \"#utility.yul\":2550:2667   */\n    tag_129:\n        /* \"#utility.yul\":2659:2660   */\n      0x00\n        /* \"#utility.yul\":2656:2657   */\n      dup1\n        /* \"#utility.yul\":2649:2661   */\n      revert\n        /* \"#utility.yul\":2796:2918   */\n    tag_131:\n        /* \"#utility.yul\":2869:2893   */\n      tag_176\n        /* \"#utility.yul\":2887:2892   */\n      dup2\n        /* \"#utility.yul\":2869:2893   */\n      tag_120\n      jump\t// in\n    tag_176:\n        /* \"#utility.yul\":2862:2867   */\n      dup2\n        /* \"#utility.yul\":2859:2894   */\n      eq\n        /* \"#utility.yul\":2849:2912   */\n      tag_177\n      jumpi\n        /* \"#utility.yul\":2908:2909   */\n      0x00\n        /* \"#utility.yul\":2905:2906   */\n      dup1\n        /* \"#utility.yul\":2898:2910   */\n      revert\n        /* \"#utility.yul\":2849:2912   */\n    tag_177:\n        /* \"#utility.yul\":2796:2918   */\n      pop\n      jump\t// out\n        /* \"#utility.yul\":2924:3063   */\n    tag_132:\n        /* \"#utility.yul\":2970:2975   */\n      0x00\n        /* \"#utility.yul\":3008:3014   */\n      dup2\n        /* \"#utility.yul\":2995:3015   */\n      calldataload\n        /* \"#utility.yul\":2986:3015   */\n      swap1\n      pop\n        /* \"#utility.yul\":3024:3057   */\n      tag_179\n        /* \"#utility.yul\":3051:3056   */\n      dup2\n        /* \"#utility.yul\":3024:3057   */\n      tag_131\n      jump\t// in\n    tag_179:\n        /* \"#utility.yul\":2924:3063   */\n      swap3\n      swap2\n      pop\n      pop\n      jump\t// out\n        /* \"#utility.yul\":3069:3398   */\n    tag_34:\n        /* \"#utility.yul\":3128:3134   */\n      0x00\n        /* \"#utility.yul\":3177:3179   */\n      0x20\n        /* \"#utility.yul\":3165:3174   */\n      dup3\n        /* \"#utility.yul\":3156:3163   */\n      dup5\n        /* \"#utility.yul\":3152:3175   */\n      sub\n        /* \"#utility.yul\":3148:3180   */\n      slt\n        /* \"#utility.yul\":3145:3264   */\n      iszero\n      tag_181\n      jumpi\n        /* \"#utility.yul\":3183:3262   */\n      tag_182\n      tag_129\n      jump\t// in\n    tag_182:\n        /* \"#utility.yul\":3145:3264   */\n    tag_181:\n        /* \"#utility.yul\":3303:3304   */\n      0x00\n        /* \"#utility.yul\":3328:3381   */\n      tag_183\n        /* \"#utility.yul\":3373:3380   */\n      dup5\n        /* \"#utility.yul\":3364:3370   */\n      dup3\n        /* \"#utility.yul\":3353:3362   */\n      dup6\n        /* \"#utility.yul\":3349:3371   */\n      add\n        /* \"#utility.yul\":3328:3381   */\n      tag_132\n      jump\t// in\n    tag_183:\n        /* \"#utility.yul\":3318:3381   */\n      swap2\n      pop\n        /* \"#utility.yul\":3274:3391   */\n      pop\n        /* \"#utility.yul\":3069:3398   */\n      swap3\n      swap2\n      pop\n      pop\n      jump\t// out\n        /* \"#utility.yul\":3404:3626   */\n    tag_37:\n        /* \"#utility.yul\":3497:3501   */\n      0x00\n        /* \"#utility.yul\":3535:3537   */\n      0x20\n        /* \"#utility.yul\":3524:3533   */\n      dup3\n        /* \"#utility.yul\":3520:3538   */\n      add\n        /* \"#utility.yul\":3512:3538   */\n      swap1\n      pop\n        /* \"#utility.yul\":3548:3619   */\n      tag_185\n        /* \"#utility.yul\":3616:3617   */\n      0x00\n        /* \"#utility.yul\":3605:3614   */\n      dup4\n        /* \"#utility.yul\":3601:3618   */\n      add\n        /* \"#utility.yul\":3592:3598   */\n      dup5\n        /* \"#utility.yul\":3548:3619   */\n      tag_123\n      jump\t// in\n    tag_185:\n        /* \"#utility.yul\":3404:3626   */\n      swap3\n      swap2\n      pop\n      pop\n      jump\t// out\n        /* \"#utility.yul\":3632:3754   */\n    tag_133:\n        /* \"#utility.yul\":3705:3729   */\n      tag_187\n        /* \"#utility.yul\":3723:3728   */\n      dup2\n        /* \"#utility.yul\":3705:3729   */\n      tag_122\n      jump\t// in\n    tag_187:\n        /* \"#utility.yul\":3698:3703   */\n      dup2\n        /* \"#utility.yul\":3695:3730   */\n      eq\n        /* \"#utility.yul\":3685:3748   */\n      tag_188\n      jumpi\n        /* \"#utility.yul\":3744:3745   */\n      0x00\n        /* \"#utility.yul\":3741:3742   */\n      dup1\n        /* \"#utility.yul\":3734:3746   */\n      revert\n        /* \"#utility.yul\":3685:3748   */\n    tag_188:\n        /* \"#utility.yul\":3632:3754   */\n      pop\n      jump\t// out\n        /* \"#utility.yul\":3760:3899   */\n    tag_134:\n        /* \"#utility.yul\":3806:3811   */\n      0x00\n        /* \"#utility.yul\":3844:3850   */\n      dup2\n        /* \"#utility.yul\":3831:3851   */\n      calldataload\n        /* \"#utility.yul\":3822:3851   */\n      swap1\n      pop\n        /* \"#utility.yul\":3860:3893   */\n      tag_190\n        /* \"#utility.yul\":3887:3892   */\n      dup2\n        /* \"#utility.yul\":3860:3893   */\n      tag_133\n      jump\t// in\n    tag_190:\n        /* \"#utility.yul\":3760:3899   */\n      swap3\n      swap2\n      pop\n      pop\n      jump\t// out\n        /* \"#utility.yul\":3905:4234   */\n    tag_54:\n        /* \"#utility.yul\":3964:3970   */\n      0x00\n        /* \"#utility.yul\":4013:4015   */\n      0x20\n        /* \"#utility.yul\":4001:4010   */\n      dup3\n        /* \"#utility.yul\":3992:3999   */\n      dup5\n        /* \"#utility.yul\":3988:4011   */\n      sub\n        /* \"#utility.yul\":3984:4016   */\n      slt\n        /* \"#utility.yul\":3981:4100   */\n      iszero\n      tag_192\n      jumpi\n        /* \"#utility.yul\":4019:4098   */\n      tag_193\n      tag_129\n      jump\t// in\n    tag_193:\n        /* \"#utility.yul\":3981:4100   */\n    tag_192:\n        /* \"#utility.yul\":4139:4140   */\n      0x00\n        /* \"#utility.yul\":4164:4217   */\n      tag_194\n        /* \"#utility.yul\":4209:4216   */\n      dup5\n        /* \"#utility.yul\":4200:4206   */\n      dup3\n        /* \"#utility.yul\":4189:4198   */\n      dup6\n        /* \"#utility.yul\":4185:4207   */\n      add\n        /* \"#utility.yul\":4164:4217   */\n      tag_134\n      jump\t// in\n    tag_194:\n        /* \"#utility.yul\":4154:4217   */\n      swap2\n      pop\n        /* \"#utility.yul\":4110:4227   */\n      pop\n        /* \"#utility.yul\":3905:4234   */\n      swap3\n      swap2\n      pop\n      pop\n      jump\t// out\n        /* \"#utility.yul\":4240:4420   */\n    tag_135:\n        /* \"#utility.yul\":4288:4365   */\n      0x4e487b7100000000000000000000000000000000000000000000000000000000\n        /* \"#utility.yul\":4285:4286   */\n      0x00\n        /* \"#utility.yul\":4278:4366   */\n      mstore\n        /* \"#utility.yul\":4385:4389   */\n      0x11\n        /* \"#utility.yul\":4382:4383   */\n      0x04\n        /* \"#utility.yul\":4375:4390   */\n      mstore\n        /* \"#utility.yul\":4409:4413   */\n      0x24\n        /* \"#utility.yul\":4406:4407   */\n      0x00\n        /* \"#utility.yul\":4399:4414   */\n      revert\n        /* \"#utility.yul\":4426:4617   */\n    tag_69:\n        /* \"#utility.yul\":4466:4469   */\n      0x00\n        /* \"#utility.yul\":4485:4505   */\n      tag_197\n        /* \"#utility.yul\":4503:4504   */\n      dup3\n        /* \"#utility.yul\":4485:4505   */\n      tag_122\n      jump\t// in\n    tag_197:\n        /* \"#utility.yul\":4480:4505   */\n      swap2\n      pop\n        /* \"#utility.yul\":4519:4539   */\n      tag_198\n        /* \"#utility.yul\":4537:4538   */\n      dup4\n        /* \"#utility.yul\":4519:4539   */\n      tag_122\n      jump\t// in\n    tag_198:\n        /* \"#utility.yul\":4514:4539   */\n      swap3\n      pop\n        /* \"#utility.yul\":4562:4563   */\n      dup3\n        /* \"#utility.yul\":4559:4560   */\n      dup3\n        /* \"#utility.yul\":4555:4564   */\n      add\n        /* \"#utility.yul\":4548:4564   */\n      swap1\n      pop\n        /* \"#utility.yul\":4583:4586   */\n      dup1\n        /* \"#utility.yul\":4580:4581   */\n      dup3\n        /* \"#utility.yul\":4577:4587   */\n      gt\n        /* \"#utility.yul\":4574:4610   */\n      iszero\n      tag_199\n      jumpi\n        /* \"#utility.yul\":4590:4608   */\n      tag_200\n      tag_135\n      jump\t// in\n    tag_200:\n        /* \"#utility.yul\":4574:4610   */\n    tag_199:\n        /* \"#utility.yul\":4426:4617   */\n      swap3\n      swap2\n      pop\n      pop\n      jump\t// out\n        /* \"#utility.yul\":4623:4803   */\n    tag_78:\n        /* \"#utility.yul\":4671:4748   */\n      0x4e487b7100000000000000000000000000000000000000000000000000000000\n        /* \"#utility.yul\":4668:4669   */\n      0x00\n        /* \"#utility.yul\":4661:4749   */\n      mstore\n        /* \"#utility.yul\":4768:4772   */\n      0x32\n        /* \"#utility.yul\":4765:4766   */\n      0x04\n        /* \"#utility.yul\":4758:4773   */\n      mstore\n        /* \"#utility.yul\":4792:4796   */\n      0x24\n        /* \"#utility.yul\":4789:4790   */\n      0x00\n        /* \"#utility.yul\":4782:4797   */\n      revert\n        /* \"#utility.yul\":4809:4989   */\n    tag_82:\n        /* \"#utility.yul\":4857:4934   */\n      0x4e487b7100000000000000000000000000000000000000000000000000000000\n        /* \"#utility.yul\":4854:4855   */\n      0x00\n        /* \"#utility.yul\":4847:4935   */\n      mstore\n        /* \"#utility.yul\":4954:4958   */\n      0x41\n        /* \"#utility.yul\":4951:4952   */\n      0x04\n        /* \"#utility.yul\":4944:4959   */\n      mstore\n        /* \"#utility.yul\":4978:4982   */\n      0x24\n        /* \"#utility.yul\":4975:4976   */\n      0x00\n        /* \"#utility.yul\":4968:4983   */\n      revert\n        /* \"#utility.yul\":4995:5142   */\n    tag_136:\n        /* \"#utility.yul\":5096:5107   */\n      0x00\n        /* \"#utility.yul\":5133:5136   */\n      dup2\n        /* \"#utility.yul\":5118:5136   */\n      swap1\n      pop\n        /* \"#utility.yul\":4995:5142   */\n      swap3\n      swap2\n      pop\n      pop\n      jump\t// out\n        /* \"#utility.yul\":5148:5262   */\n    tag_137:\n      pop\n      jump\t// out\n        /* \"#utility.yul\":5268:5666   */\n    tag_138:\n        /* \"#utility.yul\":5427:5430   */\n      0x00\n        /* \"#utility.yul\":5448:5531   */\n      tag_206\n        /* \"#utility.yul\":5529:5530   */\n      0x00\n        /* \"#utility.yul\":5524:5527   */\n      dup4\n        /* \"#utility.yul\":5448:5531   */\n      tag_136\n      jump\t// in\n    tag_206:\n        /* \"#utility.yul\":5441:5531   */\n      swap2\n      pop\n        /* \"#utility.yul\":5540:5633   */\n      tag_207\n        /* \"#utility.yul\":5629:5632   */\n      dup3\n        /* \"#utility.yul\":5540:5633   */\n      tag_137\n      jump\t// in\n    tag_207:\n        /* \"#utility.yul\":5658:5659   */\n      0x00\n        /* \"#utility.yul\":5653:5656   */\n      dup3\n        /* \"#utility.yul\":5649:5660   */\n      add\n        /* \"#utility.yul\":5642:5660   */\n      swap1\n      pop\n        /* \"#utility.yul\":5268:5666   */\n      swap2\n      swap1\n      pop\n      jump\t// out\n        /* \"#utility.yul\":5672:6051   */\n    tag_87:\n        /* \"#utility.yul\":5856:5859   */\n      0x00\n        /* \"#utility.yul\":5878:6025   */\n      tag_209\n        /* \"#utility.yul\":6021:6024   */\n      dup3\n        /* \"#utility.yul\":5878:6025   */\n      tag_138\n      jump\t// in\n    tag_209:\n        /* \"#utility.yul\":5871:6025   */\n      swap2\n      pop\n        /* \"#utility.yul\":6042:6045   */\n      dup2\n        /* \"#utility.yul\":6035:6045   */\n      swap1\n      pop\n        /* \"#utility.yul\":5672:6051   */\n      swap2\n      swap1\n      pop\n      jump\t// out\n        /* \"#utility.yul\":6057:6467   */\n    tag_97:\n        /* \"#utility.yul\":6097:6104   */\n      0x00\n        /* \"#utility.yul\":6120:6140   */\n      tag_211\n        /* \"#utility.yul\":6138:6139   */\n      dup3\n        /* \"#utility.yul\":6120:6140   */\n      tag_122\n      jump\t// in\n    tag_211:\n        /* \"#utility.yul\":6115:6140   */\n      swap2\n      pop\n        /* \"#utility.yul\":6154:6174   */\n      tag_212\n        /* \"#utility.yul\":6172:6173   */\n      dup4\n        /* \"#utility.yul\":6154:6174   */\n      tag_122\n      jump\t// in\n    tag_212:\n        /* \"#utility.yul\":6149:6174   */\n      swap3\n      pop\n        /* \"#utility.yul\":6209:6210   */\n      dup3\n        /* \"#utility.yul\":6206:6207   */\n      dup3\n        /* \"#utility.yul\":6202:6211   */\n      mul\n        /* \"#utility.yul\":6231:6261   */\n      tag_213\n        /* \"#utility.yul\":6249:6260   */\n      dup2\n        /* \"#utility.yul\":6231:6261   */\n      tag_122\n      jump\t// in\n    tag_213:\n        /* \"#utility.yul\":6220:6261   */\n      swap2\n      pop\n        /* \"#utility.yul\":6410:6411   */\n      dup3\n        /* \"#utility.yul\":6401:6408   */\n      dup3\n        /* \"#utility.yul\":6397:6412   */\n      div\n        /* \"#utility.yul\":6394:6395   */\n      dup5\n        /* \"#utility.yul\":6391:6413   */\n      eq\n        /* \"#utility.yul\":6371:6372   */\n      dup4\n        /* \"#utility.yul\":6364:6373   */\n      iszero\n        /* \"#utility.yul\":6344:6427   */\n      or\n        /* \"#utility.yul\":6321:6460   */\n      tag_214\n      jumpi\n        /* \"#utility.yul\":6440:6458   */\n      tag_215\n      tag_135\n      jump\t// in\n    tag_215:\n        /* \"#utility.yul\":6321:6460   */\n    tag_214:\n        /* \"#utility.yul\":6105:6467   */\n      pop\n        /* \"#utility.yul\":6057:6467   */\n      swap3\n      swap2\n      pop\n      pop\n      jump\t// out\n        /* \"#utility.yul\":6473:6653   */\n    tag_139:\n        /* \"#utility.yul\":6521:6598   */\n      0x4e487b7100000000000000000000000000000000000000000000000000000000\n        /* \"#utility.yul\":6518:6519   */\n      0x00\n        /* \"#utility.yul\":6511:6599   */\n      mstore\n        /* \"#utility.yul\":6618:6622   */\n      0x12\n        /* \"#utility.yul\":6615:6616   */\n      0x04\n        /* \"#utility.yul\":6608:6623   */\n      mstore\n        /* \"#utility.yul\":6642:6646   */\n      0x24\n        /* \"#utility.yul\":6639:6640   */\n      0x00\n        /* \"#utility.yul\":6632:6647   */\n      revert\n        /* \"#utility.yul\":6659:6844   */\n    tag_99:\n        /* \"#utility.yul\":6699:6700   */\n      0x00\n        /* \"#utility.yul\":6716:6736   */\n      tag_218\n        /* \"#utility.yul\":6734:6735   */\n      dup3\n        /* \"#utility.yul\":6716:6736   */\n      tag_122\n      jump\t// in\n    tag_218:\n        /* \"#utility.yul\":6711:6736   */\n      swap2\n      pop\n        /* \"#utility.yul\":6750:6770   */\n      tag_219\n        /* \"#utility.yul\":6768:6769   */\n      dup4\n        /* \"#utility.yul\":6750:6770   */\n      tag_122\n      jump\t// in\n    tag_219:\n        /* \"#utility.yul\":6745:6770   */\n      swap3\n      pop\n        /* \"#utility.yul\":6789:6790   */\n      dup3\n        /* \"#utility.yul\":6779:6814   */\n      tag_220\n      jumpi\n        /* \"#utility.yul\":6794:6812   */\n      tag_221\n      tag_139\n      jump\t// in\n    tag_221:\n        /* \"#utility.yul\":6779:6814   */\n    tag_220:\n        /* \"#utility.yul\":6836:6837   */\n      dup3\n        /* \"#utility.yul\":6833:6834   */\n      dup3\n        /* \"#utility.yul\":6829:6838   */\n      div\n        /* \"#utility.yul\":6824:6838   */\n      swap1\n      pop\n        /* \"#utility.yul\":6659:6844   */\n      swap3\n      swap2\n      pop\n      pop\n      jump\t// out\n        /* \"#utility.yul\":6850:6993   */\n    tag_140:\n        /* \"#utility.yul\":6907:6912   */\n      0x00\n        /* \"#utility.yul\":6938:6944   */\n      dup2\n        /* \"#utility.yul\":6932:6945   */\n      mload\n        /* \"#utility.yul\":6923:6945   */\n      swap1\n      pop\n        /* \"#utility.yul\":6954:6987   */\n      tag_223\n        /* \"#utility.yul\":6981:6986   */\n      dup2\n        /* \"#utility.yul\":6954:6987   */\n      tag_133\n      jump\t// in\n    tag_223:\n        /* \"#utility.yul\":6850:6993   */\n      swap3\n      swap2\n      pop\n      pop\n      jump\t// out\n        /* \"#utility.yul\":6999:7350   */\n    tag_104:\n        /* \"#utility.yul\":7069:7075   */\n      0x00\n        /* \"#utility.yul\":7118:7120   */\n      0x20\n        /* \"#utility.yul\":7106:7115   */\n      dup3\n        /* \"#utility.yul\":7097:7104   */\n      dup5\n        /* \"#utility.yul\":7093:7116   */\n      sub\n        /* \"#utility.yul\":7089:7121   */\n      slt\n        /* \"#utility.yul\":7086:7205   */\n      iszero\n      tag_225\n      jumpi\n        /* \"#utility.yul\":7124:7203   */\n      tag_226\n      tag_129\n      jump\t// in\n    tag_226:\n        /* \"#utility.yul\":7086:7205   */\n    tag_225:\n        /* \"#utility.yul\":7244:7245   */\n      0x00\n        /* \"#utility.yul\":7269:7333   */\n      tag_227\n        /* \"#utility.yul\":7325:7332   */\n      dup5\n        /* \"#utility.yul\":7316:7322   */\n      dup3\n        /* \"#utility.yul\":7305:7314   */\n      dup6\n        /* \"#utility.yul\":7301:7323   */\n      add\n        /* \"#utility.yul\":7269:7333   */\n      tag_140\n      jump\t// in\n    tag_227:\n        /* \"#utility.yul\":7259:7333   */\n      swap2\n      pop\n        /* \"#utility.yul\":7215:7343   */\n      pop\n        /* \"#utility.yul\":6999:7350   */\n      swap3\n      swap2\n      pop\n      pop\n      jump\t// out\n        /* \"#utility.yul\":7356:7461   */\n    tag_141:\n        /* \"#utility.yul\":7392:7399   */\n      0x00\n        /* \"#utility.yul\":7432:7454   */\n      0xffffffffffffffffffff\n        /* \"#utility.yul\":7425:7430   */\n      dup3\n        /* \"#utility.yul\":7421:7455   */\n      and\n        /* \"#utility.yul\":7410:7455   */\n      swap1\n      pop\n        /* \"#utility.yul\":7356:7461   */\n      swap2\n      swap1\n      pop\n      jump\t// out\n        /* \"#utility.yul\":7467:7587   */\n    tag_142:\n        /* \"#utility.yul\":7539:7562   */\n      tag_230\n        /* \"#utility.yul\":7556:7561   */\n      dup2\n        /* \"#utility.yul\":7539:7562   */\n      tag_141\n      jump\t// in\n    tag_230:\n        /* \"#utility.yul\":7532:7537   */\n      dup2\n        /* \"#utility.yul\":7529:7563   */\n      eq\n        /* \"#utility.yul\":7519:7581   */\n      tag_231\n      jumpi\n        /* \"#utility.yul\":7577:7578   */\n      0x00\n        /* \"#utility.yul\":7574:7575   */\n      dup1\n        /* \"#utility.yul\":7567:7579   */\n      revert\n        /* \"#utility.yul\":7519:7581   */\n    tag_231:\n        /* \"#utility.yul\":7467:7587   */\n      pop\n      jump\t// out\n        /* \"#utility.yul\":7593:7734   */\n    tag_143:\n        /* \"#utility.yul\":7649:7654   */\n      0x00\n        /* \"#utility.yul\":7680:7686   */\n      dup2\n        /* \"#utility.yul\":7674:7687   */\n      mload\n        /* \"#utility.yul\":7665:7687   */\n      swap1\n      pop\n        /* \"#utility.yul\":7696:7728   */\n      tag_233\n        /* \"#utility.yul\":7722:7727   */\n      dup2\n        /* \"#utility.yul\":7696:7728   */\n      tag_142\n      jump\t// in\n    tag_233:\n        /* \"#utility.yul\":7593:7734   */\n      swap3\n      swap2\n      pop\n      pop\n      jump\t// out\n        /* \"#utility.yul\":7740:7816   */\n    tag_144:\n        /* \"#utility.yul\":7776:7783   */\n      0x00\n        /* \"#utility.yul\":7805:7810   */\n      dup2\n        /* \"#utility.yul\":7794:7810   */\n      swap1\n      pop\n        /* \"#utility.yul\":7740:7816   */\n      swap2\n      swap1\n      pop\n      jump\t// out\n        /* \"#utility.yul\":7822:7942   */\n    tag_145:\n        /* \"#utility.yul\":7894:7917   */\n      tag_236\n        /* \"#utility.yul\":7911:7916   */\n      dup2\n        /* \"#utility.yul\":7894:7917   */\n      tag_144\n      jump\t// in\n    tag_236:\n        /* \"#utility.yul\":7887:7892   */\n      dup2\n        /* \"#utility.yul\":7884:7918   */\n      eq\n        /* \"#utility.yul\":7874:7936   */\n      tag_237\n      jumpi\n        /* \"#utility.yul\":7932:7933   */\n      0x00\n        /* \"#utility.yul\":7929:7930   */\n      dup1\n        /* \"#utility.yul\":7922:7934   */\n      revert\n        /* \"#utility.yul\":7874:7936   */\n    tag_237:\n        /* \"#utility.yul\":7822:7942   */\n      pop\n      jump\t// out\n        /* \"#utility.yul\":7948:8089   */\n    tag_146:\n        /* \"#utility.yul\":8004:8009   */\n      0x00\n        /* \"#utility.yul\":8035:8041   */\n      dup2\n        /* \"#utility.yul\":8029:8042   */\n      mload\n        /* \"#utility.yul\":8020:8042   */\n      swap1\n      pop\n        /* \"#utility.yul\":8051:8083   */\n      tag_239\n        /* \"#utility.yul\":8077:8082   */\n      dup2\n        /* \"#utility.yul\":8051:8083   */\n      tag_145\n      jump\t// in\n    tag_239:\n        /* \"#utility.yul\":7948:8089   */\n      swap3\n      swap2\n      pop\n      pop\n      jump\t// out\n        /* \"#utility.yul\":8095:9066   */\n    tag_109:\n        /* \"#utility.yul\":8198:8204   */\n      0x00\n        /* \"#utility.yul\":8206:8212   */\n      dup1\n        /* \"#utility.yul\":8214:8220   */\n      0x00\n        /* \"#utility.yul\":8222:8228   */\n      dup1\n        /* \"#utility.yul\":8230:8236   */\n      0x00\n        /* \"#utility.yul\":8279:8282   */\n      0xa0\n        /* \"#utility.yul\":8267:8276   */\n      dup7\n        /* \"#utility.yul\":8258:8265   */\n      dup9\n        /* \"#utility.yul\":8254:8277   */\n      sub\n        /* \"#utility.yul\":8250:8283   */\n      slt\n        /* \"#utility.yul\":8247:8367   */\n      iszero\n      tag_241\n      jumpi\n        /* \"#utility.yul\":8286:8365   */\n      tag_242\n      tag_129\n      jump\t// in\n    tag_242:\n        /* \"#utility.yul\":8247:8367   */\n    tag_241:\n        /* \"#utility.yul\":8406:8407   */\n      0x00\n        /* \"#utility.yul\":8431:8494   */\n      tag_243\n        /* \"#utility.yul\":8486:8493   */\n      dup9\n        /* \"#utility.yul\":8477:8483   */\n      dup3\n        /* \"#utility.yul\":8466:8475   */\n      dup10\n        /* \"#utility.yul\":8462:8484   */\n      add\n        /* \"#utility.yul\":8431:8494   */\n      tag_143\n      jump\t// in\n    tag_243:\n        /* \"#utility.yul\":8421:8494   */\n      swap6\n      pop\n        /* \"#utility.yul\":8377:8504   */\n      pop\n        /* \"#utility.yul\":8543:8545   */\n      0x20\n        /* \"#utility.yul\":8569:8632   */\n      tag_244\n        /* \"#utility.yul\":8624:8631   */\n      dup9\n        /* \"#utility.yul\":8615:8621   */\n      dup3\n        /* \"#utility.yul\":8604:8613   */\n      dup10\n        /* \"#utility.yul\":8600:8622   */\n      add\n        /* \"#utility.yul\":8569:8632   */\n      tag_146\n      jump\t// in\n    tag_244:\n        /* \"#utility.yul\":8559:8632   */\n      swap5\n      pop\n        /* \"#utility.yul\":8514:8642   */\n      pop\n        /* \"#utility.yul\":8681:8683   */\n      0x40\n        /* \"#utility.yul\":8707:8771   */\n      tag_245\n        /* \"#utility.yul\":8763:8770   */\n      dup9\n        /* \"#utility.yul\":8754:8760   */\n      dup3\n        /* \"#utility.yul\":8743:8752   */\n      dup10\n        /* \"#utility.yul\":8739:8761   */\n      add\n        /* \"#utility.yul\":8707:8771   */\n      tag_140\n      jump\t// in\n    tag_245:\n        /* \"#utility.yul\":8697:8771   */\n      swap4\n      pop\n        /* \"#utility.yul\":8652:8781   */\n      pop\n        /* \"#utility.yul\":8820:8822   */\n      0x60\n        /* \"#utility.yul\":8846:8910   */\n      tag_246\n        /* \"#utility.yul\":8902:8909   */\n      dup9\n        /* \"#utility.yul\":8893:8899   */\n      dup3\n        /* \"#utility.yul\":8882:8891   */\n      dup10\n        /* \"#utility.yul\":8878:8900   */\n      add\n        /* \"#utility.yul\":8846:8910   */\n      tag_140\n      jump\t// in\n    tag_246:\n        /* \"#utility.yul\":8836:8910   */\n      swap3\n      pop\n        /* \"#utility.yul\":8791:8920   */\n      pop\n        /* \"#utility.yul\":8959:8962   */\n      0x80\n        /* \"#utility.yul\":8986:9049   */\n      tag_247\n        /* \"#utility.yul\":9041:9048   */\n      dup9\n        /* \"#utility.yul\":9032:9038   */\n      dup3\n        /* \"#utility.yul\":9021:9030   */\n      dup10\n        /* \"#utility.yul\":9017:9039   */\n      add\n        /* \"#utility.yul\":8986:9049   */\n      tag_143\n      jump\t// in\n    tag_247:\n        /* \"#utility.yul\":8976:9049   */\n      swap2\n      pop\n        /* \"#utility.yul\":8930:9059   */\n      pop\n        /* \"#utility.yul\":8095:9066   */\n      swap3\n      swap6\n      pop\n      swap3\n      swap6\n      swap1\n      swap4\n      pop\n      jump\t// out\n        /* \"#utility.yul\":9072:9628   */\n    tag_111:\n        /* \"#utility.yul\":9111:9118   */\n      0x00\n        /* \"#utility.yul\":9134:9153   */\n      tag_249\n        /* \"#utility.yul\":9151:9152   */\n      dup3\n        /* \"#utility.yul\":9134:9153   */\n      tag_144\n      jump\t// in\n    tag_249:\n        /* \"#utility.yul\":9129:9153   */\n      swap2\n      pop\n        /* \"#utility.yul\":9167:9186   */\n      tag_250\n        /* \"#utility.yul\":9184:9185   */\n      dup4\n        /* \"#utility.yul\":9167:9186   */\n      tag_144\n      jump\t// in\n    tag_250:\n        /* \"#utility.yul\":9162:9186   */\n      swap3\n      pop\n        /* \"#utility.yul\":9221:9222   */\n      dup3\n        /* \"#utility.yul\":9218:9219   */\n      dup3\n        /* \"#utility.yul\":9214:9223   */\n      mul\n        /* \"#utility.yul\":9243:9272   */\n      tag_251\n        /* \"#utility.yul\":9260:9271   */\n      dup2\n        /* \"#utility.yul\":9243:9272   */\n      tag_144\n      jump\t// in\n    tag_251:\n        /* \"#utility.yul\":9232:9272   */\n      swap2\n      pop\n        /* \"#utility.yul\":9330:9396   */\n      0x8000000000000000000000000000000000000000000000000000000000000000\n        /* \"#utility.yul\":9327:9328   */\n      dup5\n        /* \"#utility.yul\":9324:9397   */\n      eq\n        /* \"#utility.yul\":9320:9321   */\n      0x00\n        /* \"#utility.yul\":9317:9318   */\n      dup5\n        /* \"#utility.yul\":9313:9322   */\n      slt\n        /* \"#utility.yul\":9309:9398   */\n      and\n        /* \"#utility.yul\":9306:9421   */\n      iszero\n      tag_252\n      jumpi\n        /* \"#utility.yul\":9401:9419   */\n      tag_253\n      tag_135\n      jump\t// in\n    tag_253:\n        /* \"#utility.yul\":9306:9421   */\n    tag_252:\n        /* \"#utility.yul\":9571:9572   */\n      dup3\n        /* \"#utility.yul\":9562:9569   */\n      dup3\n        /* \"#utility.yul\":9557:9573   */\n      sdiv\n        /* \"#utility.yul\":9554:9555   */\n      dup5\n        /* \"#utility.yul\":9551:9574   */\n      eq\n        /* \"#utility.yul\":9531:9532   */\n      dup4\n        /* \"#utility.yul\":9524:9533   */\n      iszero\n        /* \"#utility.yul\":9504:9588   */\n      or\n        /* \"#utility.yul\":9481:9621   */\n      tag_254\n      jumpi\n        /* \"#utility.yul\":9601:9619   */\n      tag_255\n      tag_135\n      jump\t// in\n    tag_255:\n        /* \"#utility.yul\":9481:9621   */\n    tag_254:\n        /* \"#utility.yul\":9119:9628   */\n      pop\n        /* \"#utility.yul\":9072:9628   */\n      swap3\n      swap2\n      pop\n      pop\n      jump\t// out\n\n    auxdata: 0xa2646970667358221220e9a6f8640e2758961c69925f6e9748f73e295f15ac6016bccba306a89e0f5cb364736f6c63430008160033\n}\n",
				"bytecode": {
					"linkReferences": {},
					"object": "60a060405234801561000f575f80fd5b503373ffffffffffffffffffffffffffffffffffffffff1660808173ffffffffffffffffffffffffffffffffffffffff1681525050608051610e0961006a5f395f818161024f015281816103ed01526104110152610e095ff3fe60806040526004361061007e575f3560e01c80637f85c54e1161004d5780637f85c54e146101b35780639b366b76146101dd578063b60d428814610207578063dc0d3dff14610211576100c6565b8063117803e31461010d5780633ccfd60b146101375780633e47d6f31461014d57806354fd4d5014610189576100c6565b366100c6577f18350d06b4a9ca0baf190b37f37fbe1be1cc0eaff14d7606af2f7f867eeb0d3833346040516100b49291906108fd565b60405180910390a16100c461024d565b005b7f7bf8121d238f1338d4842c396807cbe93f5a2396e2b3cad1639735997867b1f533345f366040516100fb949392919061097e565b60405180910390a161010b61024d565b005b348015610118575f80fd5b506101216103eb565b60405161012e91906109bc565b60405180910390f35b348015610142575f80fd5b5061014b61040f565b005b348015610158575f80fd5b50610173600480360381019061016e9190610a03565b610634565b6040516101809190610a2e565b60405180910390f35b348015610194575f80fd5b5061019d610649565b6040516101aa9190610a2e565b60405180910390f35b3480156101be575f80fd5b506101c761064e565b6040516101d49190610a2e565b60405180910390f35b3480156101e8575f80fd5b506101f1610654565b6040516101fe9190610a2e565b60405180910390f35b61020f61024d565b005b34801561021c575f80fd5b5061023760048036038101906102329190610a71565b610660565b60405161024491906109bc565b60405180910390f35b7f000000000000000000000000000000000000000000000000000000000000000073ffffffffffffffffffffffffffffffffffffffff163373ffffffffffffffffffffffffffffffffffffffff16146102d2576040517f251c9d6300000000000000000000000000000000000000000000000000000000815260040160405180910390fd5b670de0b6b3a76400006102e43461069b565b1161031b576040517fd9f7552c00000000000000000000000000000000000000000000000000000000815260040160405180910390fd5b600233908060018154018082558091505060019003905f5260205f20015f9091909190916101000a81548173ffffffffffffffffffffffffffffffffffffffff021916908373ffffffffffffffffffffffffffffffffffffffff1602179055506103836106d3565b5f8190555061039061075f565b6001819055503460035f3373ffffffffffffffffffffffffffffffffffffffff1673ffffffffffffffffffffffffffffffffffffffff1681526020019081526020015f205f8282546103e29190610ac9565b92505081905550565b7f000000000000000000000000000000000000000000000000000000000000000081565b7f000000000000000000000000000000000000000000000000000000000000000073ffffffffffffffffffffffffffffffffffffffff163373ffffffffffffffffffffffffffffffffffffffff1614610494576040517f251c9d6300000000000000000000000000000000000000000000000000000000815260040160405180910390fd5b5f5b600280549050811015610532575f600282815481106104b8576104b7610afc565b5b905f5260205f20015f9054906101000a900473ffffffffffffffffffffffffffffffffffffffff1690505f60035f8373ffffffffffffffffffffffffffffffffffffffff1673ffffffffffffffffffffffffffffffffffffffff1681526020019081526020015f2081905550508080600101915050610496565b505f67ffffffffffffffff81111561054d5761054c610b29565b5b60405190808252806020026020018201604052801561057b5781602001602082028036833780820191505090505b5060029080519060200190610591929190610804565b505f3373ffffffffffffffffffffffffffffffffffffffff16476040516105b790610b83565b5f6040518083038185875af1925050503d805f81146105f1576040519150601f19603f3d011682016040523d82523d5f602084013e6105f6565b606091505b5050905080610631576040517f2bfecd3900000000000000000000000000000000000000000000000000000000815260040160405180910390fd5b50565b6003602052805f5260405f205f915090505481565b5f5481565b60015481565b670de0b6b3a764000081565b6002818154811061066f575f80fd5b905f5260205f20015f915054906101000a900473ffffffffffffffffffffffffffffffffffffffff1681565b5f806106a561075f565b90505f670de0b6b3a764000084836106bd9190610b97565b6106c79190610c05565b90508092505050919050565b5f8073694aa1769357215de4fac081bf1f309adc32530690508073ffffffffffffffffffffffffffffffffffffffff166354fd4d506040518163ffffffff1660e01b8152600401602060405180830381865afa158015610735573d5f803e3d5ffd5b505050506040513d601f19601f820116820180604052508101906107599190610c49565b91505090565b5f8073694aa1769357215de4fac081bf1f309adc32530690505f8173ffffffffffffffffffffffffffffffffffffffff1663feaf968c6040518163ffffffff1660e01b815260040160a060405180830381865afa1580156107c2573d5f803e3d5ffd5b505050506040513d601f19601f820116820180604052508101906107e69190610ce6565b5050509150506402540be400816107fd9190610d5d565b9250505090565b828054828255905f5260205f2090810192821561087a579160200282015b82811115610879578251825f6101000a81548173ffffffffffffffffffffffffffffffffffffffff021916908373ffffffffffffffffffffffffffffffffffffffff16021790555091602001919060010190610822565b5b509050610887919061088b565b5090565b5b808211156108a2575f815f90555060010161088c565b5090565b5f73ffffffffffffffffffffffffffffffffffffffff82169050919050565b5f6108cf826108a6565b9050919050565b6108df816108c5565b82525050565b5f819050919050565b6108f7816108e5565b82525050565b5f6040820190506109105f8301856108d6565b61091d60208301846108ee565b9392505050565b5f82825260208201905092915050565b828183375f83830152505050565b5f601f19601f8301169050919050565b5f61095d8385610924565b935061096a838584610934565b61097383610942565b840190509392505050565b5f6060820190506109915f8301876108d6565b61099e60208301866108ee565b81810360408301526109b1818486610952565b905095945050505050565b5f6020820190506109cf5f8301846108d6565b92915050565b5f80fd5b6109e2816108c5565b81146109ec575f80fd5b50565b5f813590506109fd816109d9565b92915050565b5f60208284031215610a1857610a176109d5565b5b5f610a25848285016109ef565b91505092915050565b5f602082019050610a415f8301846108ee565b92915050565b610a50816108e5565b8114610a5a575f80fd5b50565b5f81359050610a6b81610a47565b92915050565b5f60208284031215610a8657610a856109d5565b5b5f610a9384828501610a5d565b91505092915050565b7f4e487b71000000000000000000000000000000000000000000000000000000005f52601160045260245ffd5b5f610ad3826108e5565b9150610ade836108e5565b9250828201905080821115610af657610af5610a9c565b5b92915050565b7f4e487b71000000000000000000000000000000000000000000000000000000005f52603260045260245ffd5b7f4e487b71000000000000000000000000000000000000000000000000000000005f52604160045260245ffd5b5f81905092915050565b50565b5f610b6e5f83610b56565b9150610b7982610b60565b5f82019050919050565b5f610b8d82610b63565b9150819050919050565b5f610ba1826108e5565b9150610bac836108e5565b9250828202610bba816108e5565b91508282048414831517610bd157610bd0610a9c565b5b5092915050565b7f4e487b71000000000000000000000000000000000000000000000000000000005f52601260045260245ffd5b5f610c0f826108e5565b9150610c1a836108e5565b925082610c2a57610c29610bd8565b5b828204905092915050565b5f81519050610c4381610a47565b92915050565b5f60208284031215610c5e57610c5d6109d5565b5b5f610c6b84828501610c35565b91505092915050565b5f69ffffffffffffffffffff82169050919050565b610c9281610c74565b8114610c9c575f80fd5b50565b5f81519050610cad81610c89565b92915050565b5f819050919050565b610cc581610cb3565b8114610ccf575f80fd5b50565b5f81519050610ce081610cbc565b92915050565b5f805f805f60a08688031215610cff57610cfe6109d5565b5b5f610d0c88828901610c9f565b9550506020610d1d88828901610cd2565b9450506040610d2e88828901610c35565b9350506060610d3f88828901610c35565b9250506080610d5088828901610c9f565b9150509295509295909350565b5f610d6782610cb3565b9150610d7283610cb3565b9250828202610d8081610cb3565b91507f800000000000000000000000000000000000000000000000000000000000000084145f84121615610db757610db6610a9c565b5b8282058414831517610dcc57610dcb610a9c565b5b509291505056fea2646970667358221220e9a6f8640e2758961c69925f6e9748f73e295f15ac6016bccba306a89e0f5cb364736f6c63430008160033",
					"opcodes": "PUSH1 0xA0 PUSH1 0x40 MSTORE CALLVALUE DUP1 ISZERO PUSH2 0xF JUMPI PUSH0 DUP1 REVERT JUMPDEST POP CALLER PUSH20 0xFFFFFFFFFFFFFFFFFFFFFFFFFFFFFFFFFFFFFFFF AND PUSH1 0x80 DUP2 PUSH20 0xFFFFFFFFFFFFFFFFFFFFFFFFFFFFFFFFFFFFFFFF AND DUP2 MSTORE POP POP PUSH1 0x80 MLOAD PUSH2 0xE09 PUSH2 0x6A PUSH0 CODECOPY PUSH0 DUP2 DUP2 PUSH2 0x24F ADD MSTORE DUP2 DUP2 PUSH2 0x3ED ADD MSTORE PUSH2 0x411 ADD MSTORE PUSH2 0xE09 PUSH0 RETURN INVALID PUSH1 0x80 PUSH1 0x40 MSTORE PUSH1 0x4 CALLDATASIZE LT PUSH2 0x7E JUMPI PUSH0 CALLDATALOAD PUSH1 0xE0 SHR DUP1 PUSH4 0x7F85C54E GT PUSH2 0x4D JUMPI DUP1 PUSH4 0x7F85C54E EQ PUSH2 0x1B3 JUMPI DUP1 PUSH4 0x9B366B76 EQ PUSH2 0x1DD JUMPI DUP1 PUSH4 0xB60D4288 EQ PUSH2 0x207 JUMPI DUP1 PUSH4 0xDC0D3DFF EQ PUSH2 0x211 JUMPI PUSH2 0xC6 JUMP JUMPDEST DUP1 PUSH4 0x117803E3 EQ PUSH2 0x10D JUMPI DUP1 PUSH4 0x3CCFD60B EQ PUSH2 0x137 JUMPI DUP1 PUSH4 0x3E47D6F3 EQ PUSH2 0x14D JUMPI DUP1 PUSH4 0x54FD4D50 EQ PUSH2 0x189 JUMPI PUSH2 0xC6 JUMP JUMPDEST CALLDATASIZE PUSH2 0xC6 JUMPI PUSH32 0x18350D06B4A9CA0BAF190B37F37FBE1BE1CC0EAFF14D7606AF2F7F867EEB0D38 CALLER CALLVALUE PUSH1 0x40 MLOAD PUSH2 0xB4 SWAP3 SWAP2 SWAP1 PUSH2 0x8FD JUMP JUMPDEST PUSH1 0x40 MLOAD DUP1 SWAP2 SUB SWAP1 LOG1 PUSH2 0xC4 PUSH2 0x24D JUMP JUMPDEST STOP JUMPDEST PUSH32 0x7BF8121D238F1338D4842C396807CBE93F5A2396E2B3CAD1639735997867B1F5 CALLER CALLVALUE PUSH0 CALLDATASIZE PUSH1 0x40 MLOAD PUSH2 0xFB SWAP5 SWAP4 SWAP3 SWAP2 SWAP1 PUSH2 0x97E JUMP JUMPDEST PUSH1 0x40 MLOAD DUP1 SWAP2 SUB SWAP1 LOG1 PUSH2 0x10B PUSH2 0x24D JUMP JUMPDEST STOP JUMPDEST CALLVALUE DUP1 ISZERO PUSH2 0x118 JUMPI PUSH0 DUP1 REVERT JUMPDEST POP PUSH2 0x121 PUSH2 0x3EB JUMP JUMPDEST PUSH1 0x40 MLOAD PUSH2 0x12E SWAP2 SWAP1 PUSH2 0x9BC JUMP JUMPDEST PUSH1 0x40 MLOAD DUP1 SWAP2 SUB SWAP1 RETURN JUMPDEST CALLVALUE DUP1 ISZERO PUSH2 0x142 JUMPI PUSH0 DUP1 REVERT JUMPDEST POP PUSH2 0x14B PUSH2 0x40F JUMP JUMPDEST STOP JUMPDEST CALLVALUE DUP1 ISZERO PUSH2 0x158 JUMPI PUSH0 DUP1 REVERT JUMPDEST POP PUSH2 0x173 PUSH1 0x4 DUP1 CALLDATASIZE SUB DUP2 ADD SWAP1 PUSH2 0x16E SWAP2 SWAP1 PUSH2 0xA03 JUMP JUMPDEST PUSH2 0x634 JUMP JUMPDEST PUSH1 0x40 MLOAD PUSH2 0x180 SWAP2 SWAP1 PUSH2 0xA2E JUMP JUMPDEST PUSH1 0x40 MLOAD DUP1 SWAP2 SUB SWAP1 RETURN JUMPDEST CALLVALUE DUP1 ISZERO PUSH2 0x194 JUMPI PUSH0 DUP1 REVERT JUMPDEST POP PUSH2 0x19D PUSH2 0x649 JUMP JUMPDEST PUSH1 0x40 MLOAD PUSH2 0x1AA SWAP2 SWAP1 PUSH2 0xA2E JUMP JUMPDEST PUSH1 0x40 MLOAD DUP1 SWAP2 SUB SWAP1 RETURN JUMPDEST CALLVALUE DUP1 ISZERO PUSH2 0x1BE JUMPI PUSH0 DUP1 REVERT JUMPDEST POP PUSH2 0x1C7 PUSH2 0x64E JUMP JUMPDEST PUSH1 0x40 MLOAD PUSH2 0x1D4 SWAP2 SWAP1 PUSH2 0xA2E JUMP JUMPDEST PUSH1 0x40 MLOAD DUP1 SWAP2 SUB SWAP1 RETURN JUMPDEST CALLVALUE DUP1 ISZERO PUSH2 0x1E8 JUMPI PUSH0 DUP1 REVERT JUMPDEST POP PUSH2 0x1F1 PUSH2 0x654 JUMP JUMPDEST PUSH1 0x40 MLOAD PUSH2 0x1FE SWAP2 SWAP1 PUSH2 0xA2E JUMP JUMPDEST PUSH1 0x40 MLOAD DUP1 SWAP2 SUB SWAP1 RETURN JUMPDEST PUSH2 0x20F PUSH2 0x24D JUMP JUMPDEST STOP JUMPDEST CALLVALUE DUP1 ISZERO PUSH2 0x21C JUMPI PUSH0 DUP1 REVERT JUMPDEST POP PUSH2 0x237 PUSH1 0x4 DUP1 CALLDATASIZE SUB DUP2 ADD SWAP1 PUSH2 0x232 SWAP2 SWAP1 PUSH2 0xA71 JUMP JUMPDEST PUSH2 0x660 JUMP JUMPDEST PUSH1 0x40 MLOAD PUSH2 0x244 SWAP2 SWAP1 PUSH2 0x9BC JUMP JUMPDEST PUSH1 0x40 MLOAD DUP1 SWAP2 SUB SWAP1 RETURN JUMPDEST PUSH32 0x0 PUSH20 0xFFFFFFFFFFFFFFFFFFFFFFFFFFFFFFFFFFFFFFFF AND CALLER PUSH20 0xFFFFFFFFFFFFFFFFFFFFFFFFFFFFFFFFFFFFFFFF AND EQ PUSH2 0x2D2 JUMPI PUSH1 0x40 MLOAD PUSH32 0x251C9D6300000000000000000000000000000000000000000000000000000000 DUP2 MSTORE PUSH1 0x4 ADD PUSH1 0x40 MLOAD DUP1 SWAP2 SUB SWAP1 REVERT JUMPDEST PUSH8 0xDE0B6B3A7640000 PUSH2 0x2E4 CALLVALUE PUSH2 0x69B JUMP JUMPDEST GT PUSH2 0x31B JUMPI PUSH1 0x40 MLOAD PUSH32 0xD9F7552C00000000000000000000000000000000000000000000000000000000 DUP2 MSTORE PUSH1 0x4 ADD PUSH1 0x40 MLOAD DUP1 SWAP2 SUB SWAP1 REVERT JUMPDEST PUSH1 0x2 CALLER SWAP1 DUP1 PUSH1 0x1 DUP2 SLOAD ADD DUP1 DUP3 SSTORE DUP1 SWAP2 POP POP PUSH1 0x1 SWAP1 SUB SWAP1 PUSH0 MSTORE PUSH1 0x20 PUSH0 KECCAK256 ADD PUSH0 SWAP1 SWAP2 SWAP1 SWAP2 SWAP1 SWAP2 PUSH2 0x100 EXP DUP2 SLOAD DUP2 PUSH20 0xFFFFFFFFFFFFFFFFFFFFFFFFFFFFFFFFFFFFFFFF MUL NOT AND SWAP1 DUP4 PUSH20 0xFFFFFFFFFFFFFFFFFFFFFFFFFFFFFFFFFFFFFFFF AND MUL OR SWAP1 SSTORE POP PUSH2 0x383 PUSH2 0x6D3 JUMP JUMPDEST PUSH0 DUP2 SWAP1 SSTORE POP PUSH2 0x390 PUSH2 0x75F JUMP JUMPDEST PUSH1 0x1 DUP2 SWAP1 SSTORE POP CALLVALUE PUSH1 0x3 PUSH0 CALLER PUSH20 0xFFFFFFFFFFFFFFFFFFFFFFFFFFFFFFFFFFFFFFFF AND PUSH20 0xFFFFFFFFFFFFFFFFFFFFFFFFFFFFFFFFFFFFFFFF AND DUP2 MSTORE PUSH1 0x20 ADD SWAP1 DUP2 MSTORE PUSH1 0x20 ADD PUSH0 KECCAK256 PUSH0 DUP3 DUP3 SLOAD PUSH2 0x3E2 SWAP2 SWAP1 PUSH2 0xAC9 JUMP JUMPDEST SWAP3 POP POP DUP2 SWAP1 SSTORE POP JUMP JUMPDEST PUSH32 0x0 DUP2 JUMP JUMPDEST PUSH32 0x0 PUSH20 0xFFFFFFFFFFFFFFFFFFFFFFFFFFFFFFFFFFFFFFFF AND CALLER PUSH20 0xFFFFFFFFFFFFFFFFFFFFFFFFFFFFFFFFFFFFFFFF AND EQ PUSH2 0x494 JUMPI PUSH1 0x40 MLOAD PUSH32 0x251C9D6300000000000000000000000000000000000000000000000000000000 DUP2 MSTORE PUSH1 0x4 ADD PUSH1 0x40 MLOAD DUP1 SWAP2 SUB SWAP1 REVERT JUMPDEST PUSH0 JUMPDEST PUSH1 0x2 DUP1 SLOAD SWAP1 POP DUP2 LT ISZERO PUSH2 0x532 JUMPI PUSH0 PUSH1 0x2 DUP3 DUP2 SLOAD DUP2 LT PUSH2 0x4B8 JUMPI PUSH2 0x4B7 PUSH2 0xAFC JUMP JUMPDEST JUMPDEST SWAP1 PUSH0 MSTORE PUSH1 0x20 PUSH0 KECCAK256 ADD PUSH0 SWAP1 SLOAD SWAP1 PUSH2 0x100 EXP SWAP1 DIV PUSH20 0xFFFFFFFFFFFFFFFFFFFFFFFFFFFFFFFFFFFFFFFF AND SWAP1 POP PUSH0 PUSH1 0x3 PUSH0 DUP4 PUSH20 0xFFFFFFFFFFFFFFFFFFFFFFFFFFFFFFFFFFFFFFFF AND PUSH20 0xFFFFFFFFFFFFFFFFFFFFFFFFFFFFFFFFFFFFFFFF AND DUP2 MSTORE PUSH1 0x20 ADD SWAP1 DUP2 MSTORE PUSH1 0x20 ADD PUSH0 KECCAK256 DUP2 SWAP1 SSTORE POP POP DUP1 DUP1 PUSH1 0x1 ADD SWAP2 POP POP PUSH2 0x496 JUMP JUMPDEST POP PUSH0 PUSH8 0xFFFFFFFFFFFFFFFF DUP2 GT ISZERO PUSH2 0x54D JUMPI PUSH2 0x54C PUSH2 0xB29 JUMP JUMPDEST JUMPDEST PUSH1 0x40 MLOAD SWAP1 DUP1 DUP3 MSTORE DUP1 PUSH1 0x20 MUL PUSH1 0x20 ADD DUP3 ADD PUSH1 0x40 MSTORE DUP1 ISZERO PUSH2 0x57B JUMPI DUP2 PUSH1 0x20 ADD PUSH1 0x20 DUP3 MUL DUP1 CALLDATASIZE DUP4 CALLDATACOPY DUP1 DUP3 ADD SWAP2 POP POP SWAP1 POP JUMPDEST POP PUSH1 0x2 SWAP1 DUP1 MLOAD SWAP1 PUSH1 0x20 ADD SWAP1 PUSH2 0x591 SWAP3 SWAP2 SWAP1 PUSH2 0x804 JUMP JUMPDEST POP PUSH0 CALLER PUSH20 0xFFFFFFFFFFFFFFFFFFFFFFFFFFFFFFFFFFFFFFFF AND SELFBALANCE PUSH1 0x40 MLOAD PUSH2 0x5B7 SWAP1 PUSH2 0xB83 JUMP JUMPDEST PUSH0 PUSH1 0x40 MLOAD DUP1 DUP4 SUB DUP2 DUP6 DUP8 GAS CALL SWAP3 POP POP POP RETURNDATASIZE DUP1 PUSH0 DUP2 EQ PUSH2 0x5F1 JUMPI PUSH1 0x40 MLOAD SWAP2 POP PUSH1 0x1F NOT PUSH1 0x3F RETURNDATASIZE ADD AND DUP3 ADD PUSH1 0x40 MSTORE RETURNDATASIZE DUP3 MSTORE RETURNDATASIZE PUSH0 PUSH1 0x20 DUP5 ADD RETURNDATACOPY PUSH2 0x5F6 JUMP JUMPDEST PUSH1 0x60 SWAP2 POP JUMPDEST POP POP SWAP1 POP DUP1 PUSH2 0x631 JUMPI PUSH1 0x40 MLOAD PUSH32 0x2BFECD3900000000000000000000000000000000000000000000000000000000 DUP2 MSTORE PUSH1 0x4 ADD PUSH1 0x40 MLOAD DUP1 SWAP2 SUB SWAP1 REVERT JUMPDEST POP JUMP JUMPDEST PUSH1 0x3 PUSH1 0x20 MSTORE DUP1 PUSH0 MSTORE PUSH1 0x40 PUSH0 KECCAK256 PUSH0 SWAP2 POP SWAP1 POP SLOAD DUP2 JUMP JUMPDEST PUSH0 SLOAD DUP2 JUMP JUMPDEST PUSH1 0x1 SLOAD DUP2 JUMP JUMPDEST PUSH8 0xDE0B6B3A7640000 DUP2 JUMP JUMPDEST PUSH1 0x2 DUP2 DUP2 SLOAD DUP2 LT PUSH2 0x66F JUMPI PUSH0 DUP1 REVERT JUMPDEST SWAP1 PUSH0 MSTORE PUSH1 0x20 PUSH0 KECCAK256 ADD PUSH0 SWAP2 POP SLOAD SWAP1 PUSH2 0x100 EXP SWAP1 DIV PUSH20 0xFFFFFFFFFFFFFFFFFFFFFFFFFFFFFFFFFFFFFFFF AND DUP2 JUMP JUMPDEST PUSH0 DUP1 PUSH2 0x6A5 PUSH2 0x75F JUMP JUMPDEST SWAP1 POP PUSH0 PUSH8 0xDE0B6B3A7640000 DUP5 DUP4 PUSH2 0x6BD SWAP2 SWAP1 PUSH2 0xB97 JUMP JUMPDEST PUSH2 0x6C7 SWAP2 SWAP1 PUSH2 0xC05 JUMP JUMPDEST SWAP1 POP DUP1 SWAP3 POP POP POP SWAP2 SWAP1 POP JUMP JUMPDEST PUSH0 DUP1 PUSH20 0x694AA1769357215DE4FAC081BF1F309ADC325306 SWAP1 POP DUP1 PUSH20 0xFFFFFFFFFFFFFFFFFFFFFFFFFFFFFFFFFFFFFFFF AND PUSH4 0x54FD4D50 PUSH1 0x40 MLOAD DUP2 PUSH4 0xFFFFFFFF AND PUSH1 0xE0 SHL DUP2 MSTORE PUSH1 0x4 ADD PUSH1 0x20 PUSH1 0x40 MLOAD DUP1 DUP4 SUB DUP2 DUP7 GAS STATICCALL ISZERO DUP1 ISZERO PUSH2 0x735 JUMPI RETURNDATASIZE PUSH0 DUP1 RETURNDATACOPY RETURNDATASIZE PUSH0 REVERT JUMPDEST POP POP POP POP PUSH1 0x40 MLOAD RETURNDATASIZE PUSH1 0x1F NOT PUSH1 0x1F DUP3 ADD AND DUP3 ADD DUP1 PUSH1 0x40 MSTORE POP DUP2 ADD SWAP1 PUSH2 0x759 SWAP2 SWAP1 PUSH2 0xC49 JUMP JUMPDEST SWAP2 POP POP SWAP1 JUMP JUMPDEST PUSH0 DUP1 PUSH20 0x694AA1769357215DE4FAC081BF1F309ADC325306 SWAP1 POP PUSH0 DUP2 PUSH20 0xFFFFFFFFFFFFFFFFFFFFFFFFFFFFFFFFFFFFFFFF AND PUSH4 0xFEAF968C PUSH1 0x40 MLOAD DUP2 PUSH4 0xFFFFFFFF AND PUSH1 0xE0 SHL DUP2 MSTORE PUSH1 0x4 ADD PUSH1 0xA0 PUSH1 0x40 MLOAD DUP1 DUP4 SUB DUP2 DUP7 GAS STATICCALL ISZERO DUP1 ISZERO PUSH2 0x7C2 JUMPI RETURNDATASIZE PUSH0 DUP1 RETURNDATACOPY RETURNDATASIZE PUSH0 REVERT JUMPDEST POP POP POP POP PUSH1 0x40 MLOAD RETURNDATASIZE PUSH1 0x1F NOT PUSH1 0x1F DUP3 ADD AND DUP3 ADD DUP1 PUSH1 0x40 MSTORE POP DUP2 ADD SWAP1 PUSH2 0x7E6 SWAP2 SWAP1 PUSH2 0xCE6 JUMP JUMPDEST POP POP POP SWAP2 POP POP PUSH5 0x2540BE400 DUP2 PUSH2 0x7FD SWAP2 SWAP1 PUSH2 0xD5D JUMP JUMPDEST SWAP3 POP POP POP SWAP1 JUMP JUMPDEST DUP3 DUP1 SLOAD DUP3 DUP3 SSTORE SWAP1 PUSH0 MSTORE PUSH1 0x20 PUSH0 KECCAK256 SWAP1 DUP2 ADD SWAP3 DUP3 ISZERO PUSH2 0x87A JUMPI SWAP2 PUSH1 0x20 MUL DUP3 ADD JUMPDEST DUP3 DUP2 GT ISZERO PUSH2 0x879 JUMPI DUP3 MLOAD DUP3 PUSH0 PUSH2 0x100 EXP DUP2 SLOAD DUP2 PUSH20 0xFFFFFFFFFFFFFFFFFFFFFFFFFFFFFFFFFFFFFFFF MUL NOT AND SWAP1 DUP4 PUSH20 0xFFFFFFFFFFFFFFFFFFFFFFFFFFFFFFFFFFFFFFFF AND MUL OR SWAP1 SSTORE POP SWAP2 PUSH1 0x20 ADD SWAP2 SWAP1 PUSH1 0x1 ADD SWAP1 PUSH2 0x822 JUMP JUMPDEST JUMPDEST POP SWAP1 POP PUSH2 0x887 SWAP2 SWAP1 PUSH2 0x88B JUMP JUMPDEST POP SWAP1 JUMP JUMPDEST JUMPDEST DUP1 DUP3 GT ISZERO PUSH2 0x8A2 JUMPI PUSH0 DUP2 PUSH0 SWAP1 SSTORE POP PUSH1 0x1 ADD PUSH2 0x88C JUMP JUMPDEST POP SWAP1 JUMP JUMPDEST PUSH0 PUSH20 0xFFFFFFFFFFFFFFFFFFFFFFFFFFFFFFFFFFFFFFFF DUP3 AND SWAP1 POP SWAP2 SWAP1 POP JUMP JUMPDEST PUSH0 PUSH2 0x8CF DUP3 PUSH2 0x8A6 JUMP JUMPDEST SWAP1 POP SWAP2 SWAP1 POP JUMP JUMPDEST PUSH2 0x8DF DUP2 PUSH2 0x8C5 JUMP JUMPDEST DUP3 MSTORE POP POP JUMP JUMPDEST PUSH0 DUP2 SWAP1 POP SWAP2 SWAP1 POP JUMP JUMPDEST PUSH2 0x8F7 DUP2 PUSH2 0x8E5 JUMP JUMPDEST DUP3 MSTORE POP POP JUMP JUMPDEST PUSH0 PUSH1 0x40 DUP3 ADD SWAP1 POP PUSH2 0x910 PUSH0 DUP4 ADD DUP6 PUSH2 0x8D6 JUMP JUMPDEST PUSH2 0x91D PUSH1 0x20 DUP4 ADD DUP5 PUSH2 0x8EE JUMP JUMPDEST SWAP4 SWAP3 POP POP POP JUMP JUMPDEST PUSH0 DUP3 DUP3 MSTORE PUSH1 0x20 DUP3 ADD SWAP1 POP SWAP3 SWAP2 POP POP JUMP JUMPDEST DUP3 DUP2 DUP4 CALLDATACOPY PUSH0 DUP4 DUP4 ADD MSTORE POP POP POP JUMP JUMPDEST PUSH0 PUSH1 0x1F NOT PUSH1 0x1F DUP4 ADD AND SWAP1 POP SWAP2 SWAP1 POP JUMP JUMPDEST PUSH0 PUSH2 0x95D DUP4 DUP6 PUSH2 0x924 JUMP JUMPDEST SWAP4 POP PUSH2 0x96A DUP4 DUP6 DUP5 PUSH2 0x934 JUMP JUMPDEST PUSH2 0x973 DUP4 PUSH2 0x942 JUMP JUMPDEST DUP5 ADD SWAP1 POP SWAP4 SWAP3 POP POP POP JUMP JUMPDEST PUSH0 PUSH1 0x60 DUP3 ADD SWAP1 POP PUSH2 0x991 PUSH0 DUP4 ADD DUP8 PUSH2 0x8D6 JUMP JUMPDEST PUSH2 0x99E PUSH1 0x20 DUP4 ADD DUP7 PUSH2 0x8EE JUMP JUMPDEST DUP2 DUP2 SUB PUSH1 0x40 DUP4 ADD MSTORE PUSH2 0x9B1 DUP2 DUP5 DUP7 PUSH2 0x952 JUMP JUMPDEST SWAP1 POP SWAP6 SWAP5 POP POP POP POP POP JUMP JUMPDEST PUSH0 PUSH1 0x20 DUP3 ADD SWAP1 POP PUSH2 0x9CF PUSH0 DUP4 ADD DUP5 PUSH2 0x8D6 JUMP JUMPDEST SWAP3 SWAP2 POP POP JUMP JUMPDEST PUSH0 DUP1 REVERT JUMPDEST PUSH2 0x9E2 DUP2 PUSH2 0x8C5 JUMP JUMPDEST DUP2 EQ PUSH2 0x9EC JUMPI PUSH0 DUP1 REVERT JUMPDEST POP JUMP JUMPDEST PUSH0 DUP2 CALLDATALOAD SWAP1 POP PUSH2 0x9FD DUP2 PUSH2 0x9D9 JUMP JUMPDEST SWAP3 SWAP2 POP POP JUMP JUMPDEST PUSH0 PUSH1 0x20 DUP3 DUP5 SUB SLT ISZERO PUSH2 0xA18 JUMPI PUSH2 0xA17 PUSH2 0x9D5 JUMP JUMPDEST JUMPDEST PUSH0 PUSH2 0xA25 DUP5 DUP3 DUP6 ADD PUSH2 0x9EF JUMP JUMPDEST SWAP2 POP POP SWAP3 SWAP2 POP POP JUMP JUMPDEST PUSH0 PUSH1 0x20 DUP3 ADD SWAP1 POP PUSH2 0xA41 PUSH0 DUP4 ADD DUP5 PUSH2 0x8EE JUMP JUMPDEST SWAP3 SWAP2 POP POP JUMP JUMPDEST PUSH2 0xA50 DUP2 PUSH2 0x8E5 JUMP JUMPDEST DUP2 EQ PUSH2 0xA5A JUMPI PUSH0 DUP1 REVERT JUMPDEST POP JUMP JUMPDEST PUSH0 DUP2 CALLDATALOAD SWAP1 POP PUSH2 0xA6B DUP2 PUSH2 0xA47 JUMP JUMPDEST SWAP3 SWAP2 POP POP JUMP JUMPDEST PUSH0 PUSH1 0x20 DUP3 DUP5 SUB SLT ISZERO PUSH2 0xA86 JUMPI PUSH2 0xA85 PUSH2 0x9D5 JUMP JUMPDEST JUMPDEST PUSH0 PUSH2 0xA93 DUP5 DUP3 DUP6 ADD PUSH2 0xA5D JUMP JUMPDEST SWAP2 POP POP SWAP3 SWAP2 POP POP JUMP JUMPDEST PUSH32 0x4E487B7100000000000000000000000000000000000000000000000000000000 PUSH0 MSTORE PUSH1 0x11 PUSH1 0x4 MSTORE PUSH1 0x24 PUSH0 REVERT JUMPDEST PUSH0 PUSH2 0xAD3 DUP3 PUSH2 0x8E5 JUMP JUMPDEST SWAP2 POP PUSH2 0xADE DUP4 PUSH2 0x8E5 JUMP JUMPDEST SWAP3 POP DUP3 DUP3 ADD SWAP1 POP DUP1 DUP3 GT ISZERO PUSH2 0xAF6 JUMPI PUSH2 0xAF5 PUSH2 0xA9C JUMP JUMPDEST JUMPDEST SWAP3 SWAP2 POP POP JUMP JUMPDEST PUSH32 0x4E487B7100000000000000000000000000000000000000000000000000000000 PUSH0 MSTORE PUSH1 0x32 PUSH1 0x4 MSTORE PUSH1 0x24 PUSH0 REVERT JUMPDEST PUSH32 0x4E487B7100000000000000000000000000000000000000000000000000000000 PUSH0 MSTORE PUSH1 0x41 PUSH1 0x4 MSTORE PUSH1 0x24 PUSH0 REVERT JUMPDEST PUSH0 DUP2 SWAP1 POP SWAP3 SWAP2 POP POP JUMP JUMPDEST POP JUMP JUMPDEST PUSH0 PUSH2 0xB6E PUSH0 DUP4 PUSH2 0xB56 JUMP JUMPDEST SWAP2 POP PUSH2 0xB79 DUP3 PUSH2 0xB60 JUMP JUMPDEST PUSH0 DUP3 ADD SWAP1 POP SWAP2 SWAP1 POP JUMP JUMPDEST PUSH0 PUSH2 0xB8D DUP3 PUSH2 0xB63 JUMP JUMPDEST SWAP2 POP DUP2 SWAP1 POP SWAP2 SWAP1 POP JUMP JUMPDEST PUSH0 PUSH2 0xBA1 DUP3 PUSH2 0x8E5 JUMP JUMPDEST SWAP2 POP PUSH2 0xBAC DUP4 PUSH2 0x8E5 JUMP JUMPDEST SWAP3 POP DUP3 DUP3 MUL PUSH2 0xBBA DUP2 PUSH2 0x8E5 JUMP JUMPDEST SWAP2 POP DUP3 DUP3 DIV DUP5 EQ DUP4 ISZERO OR PUSH2 0xBD1 JUMPI PUSH2 0xBD0 PUSH2 0xA9C JUMP JUMPDEST JUMPDEST POP SWAP3 SWAP2 POP POP JUMP JUMPDEST PUSH32 0x4E487B7100000000000000000000000000000000000000000000000000000000 PUSH0 MSTORE PUSH1 0x12 PUSH1 0x4 MSTORE PUSH1 0x24 PUSH0 REVERT JUMPDEST PUSH0 PUSH2 0xC0F DUP3 PUSH2 0x8E5 JUMP JUMPDEST SWAP2 POP PUSH2 0xC1A DUP4 PUSH2 0x8E5 JUMP JUMPDEST SWAP3 POP DUP3 PUSH2 0xC2A JUMPI PUSH2 0xC29 PUSH2 0xBD8 JUMP JUMPDEST JUMPDEST DUP3 DUP3 DIV SWAP1 POP SWAP3 SWAP2 POP POP JUMP JUMPDEST PUSH0 DUP2 MLOAD SWAP1 POP PUSH2 0xC43 DUP2 PUSH2 0xA47 JUMP JUMPDEST SWAP3 SWAP2 POP POP JUMP JUMPDEST PUSH0 PUSH1 0x20 DUP3 DUP5 SUB SLT ISZERO PUSH2 0xC5E JUMPI PUSH2 0xC5D PUSH2 0x9D5 JUMP JUMPDEST JUMPDEST PUSH0 PUSH2 0xC6B DUP5 DUP3 DUP6 ADD PUSH2 0xC35 JUMP JUMPDEST SWAP2 POP POP SWAP3 SWAP2 POP POP JUMP JUMPDEST PUSH0 PUSH10 0xFFFFFFFFFFFFFFFFFFFF DUP3 AND SWAP1 POP SWAP2 SWAP1 POP JUMP JUMPDEST PUSH2 0xC92 DUP2 PUSH2 0xC74 JUMP JUMPDEST DUP2 EQ PUSH2 0xC9C JUMPI PUSH0 DUP1 REVERT JUMPDEST POP JUMP JUMPDEST PUSH0 DUP2 MLOAD SWAP1 POP PUSH2 0xCAD DUP2 PUSH2 0xC89 JUMP JUMPDEST SWAP3 SWAP2 POP POP JUMP JUMPDEST PUSH0 DUP2 SWAP1 POP SWAP2 SWAP1 POP JUMP JUMPDEST PUSH2 0xCC5 DUP2 PUSH2 0xCB3 JUMP JUMPDEST DUP2 EQ PUSH2 0xCCF JUMPI PUSH0 DUP1 REVERT JUMPDEST POP JUMP JUMPDEST PUSH0 DUP2 MLOAD SWAP1 POP PUSH2 0xCE0 DUP2 PUSH2 0xCBC JUMP JUMPDEST SWAP3 SWAP2 POP POP JUMP JUMPDEST PUSH0 DUP1 PUSH0 DUP1 PUSH0 PUSH1 0xA0 DUP7 DUP9 SUB SLT ISZERO PUSH2 0xCFF JUMPI PUSH2 0xCFE PUSH2 0x9D5 JUMP JUMPDEST JUMPDEST PUSH0 PUSH2 0xD0C DUP9 DUP3 DUP10 ADD PUSH2 0xC9F JUMP JUMPDEST SWAP6 POP POP PUSH1 0x20 PUSH2 0xD1D DUP9 DUP3 DUP10 ADD PUSH2 0xCD2 JUMP JUMPDEST SWAP5 POP POP PUSH1 0x40 PUSH2 0xD2E DUP9 DUP3 DUP10 ADD PUSH2 0xC35 JUMP JUMPDEST SWAP4 POP POP PUSH1 0x60 PUSH2 0xD3F DUP9 DUP3 DUP10 ADD PUSH2 0xC35 JUMP JUMPDEST SWAP3 POP POP PUSH1 0x80 PUSH2 0xD50 DUP9 DUP3 DUP10 ADD PUSH2 0xC9F JUMP JUMPDEST SWAP2 POP POP SWAP3 SWAP6 POP SWAP3 SWAP6 SWAP1 SWAP4 POP JUMP JUMPDEST PUSH0 PUSH2 0xD67 DUP3 PUSH2 0xCB3 JUMP JUMPDEST SWAP2 POP PUSH2 0xD72 DUP4 PUSH2 0xCB3 JUMP JUMPDEST SWAP3 POP DUP3 DUP3 MUL PUSH2 0xD80 DUP2 PUSH2 0xCB3 JUMP JUMPDEST SWAP2 POP PUSH32 0x8000000000000000000000000000000000000000000000000000000000000000 DUP5 EQ PUSH0 DUP5 SLT AND ISZERO PUSH2 0xDB7 JUMPI PUSH2 0xDB6 PUSH2 0xA9C JUMP JUMPDEST JUMPDEST DUP3 DUP3 SDIV DUP5 EQ DUP4 ISZERO OR PUSH2 0xDCC JUMPI PUSH2 0xDCB PUSH2 0xA9C JUMP JUMPDEST JUMPDEST POP SWAP3 SWAP2 POP POP JUMP INVALID LOG2 PUSH5 0x6970667358 0x22 SLT KECCAK256 0xE9 0xA6 0xF8 PUSH5 0xE2758961C PUSH10 0x925F6E9748F73E295F15 0xAC PUSH1 0x16 0xBC 0xCB LOG3 MOD 0xA8 SWAP15 0xF 0x5C 0xB3 PUSH5 0x736F6C6343 STOP ADDMOD AND STOP CALLER "
				},
				"gasEstimates": {
					"creation": {
						"codeDepositCost": "718600",
						"executionCost": "infinite",
						"totalCost": "infinite"
					},
					"external": {
						"": "infinite",
						"MINIUM_USD()": "347",
						"OWNER()": "infinite",
						"addressToAmountFunded(address)": "2847",
						"fund()": "infinite",
						"funders(uint256)": "5010",
						"priceToUsd()": "2425",
						"version()": "2491",
						"withdraw()": "infinite"
					}
				},
				"methodIdentifiers": {
					"MINIUM_USD()": "9b366b76",
					"OWNER()": "117803e3",
					"addressToAmountFunded(address)": "3e47d6f3",
					"fund()": "b60d4288",
					"funders(uint256)": "dc0d3dff",
					"priceToUsd()": "7f85c54e",
					"version()": "54fd4d50",
					"withdraw()": "3ccfd60b"
				}
			},
			"storageLayout": {
				"storage": [
					{
						"astId": 63,
						"contract": "contracts/FundMe.sol:FundMe",
						"label": "version",
						"offset": 0,
						"slot": "0",
						"type": "t_uint256"
					},
					{
						"astId": 65,
						"contract": "contracts/FundMe.sol:FundMe",
						"label": "priceToUsd",
						"offset": 0,
						"slot": "1",
						"type": "t_uint256"
					},
					{
						"astId": 68,
						"contract": "contracts/FundMe.sol:FundMe",
						"label": "funders",
						"offset": 0,
						"slot": "2",
						"type": "t_array(t_address)dyn_storage"
					},
					{
						"astId": 74,
						"contract": "contracts/FundMe.sol:FundMe",
						"label": "addressToAmountFunded",
						"offset": 0,
						"slot": "3",
						"type": "t_mapping(t_address,t_uint256)"
					}
				],
				"types": {
					"t_address": {
						"encoding": "inplace",
						"label": "address",
						"numberOfBytes": "20"
					},
					"t_array(t_address)dyn_storage": {
						"base": "t_address",
						"encoding": "dynamic_array",
						"label": "address[]",
						"numberOfBytes": "32"
					},
					"t_mapping(t_address,t_uint256)": {
						"encoding": "mapping",
						"key": "t_address",
						"label": "mapping(address => uint256)",
						"numberOfBytes": "32",
						"value": "t_uint256"
					},
					"t_uint256": {
						"encoding": "inplace",
						"label": "uint256",
						"numberOfBytes": "32"
					}
				}
			},
			"userdoc": {
				"kind": "user",
				"methods": {},
				"version": 1
			}
		}
	}
}