{
	"data": {
		"bytecode": {
			"linkReferences": {},
			"object": "6080604052670de0b6b3a76400005f5534801561001a575f80fd5b5073694aa1769357215de4fac081bf1f309adc32530660015f6101000a81548173ffffffffffffffffffffffffffffffffffffffff021916908373ffffffffffffffffffffffffffffffffffffffff16021790555061067e8061007c5f395ff3fe608060405260043610610049575f3560e01c80630b5b83311461004d5780630d8e6e2c146100775780636e5b6b28146100a157806398d5fdca146100dd578063b60d428814610107575b5f80fd5b348015610058575f80fd5b50610061610111565b60405161006e91906102f5565b60405180910390f35b348015610082575f80fd5b5061008b610116565b60405161009891906102f5565b60405180910390f35b3480156100ac575f80fd5b506100c760048036038101906100c2919061033c565b6101aa565b6040516100d491906102f5565b60405180910390f35b3480156100e8575f80fd5b506100f16101e2565b6040516100fe91906102f5565b60405180910390f35b61010f61028f565b005b5f5481565b5f60015f9054906101000a900473ffffffffffffffffffffffffffffffffffffffff1673ffffffffffffffffffffffffffffffffffffffff166354fd4d506040518163ffffffff1660e01b8152600401602060405180830381865afa158015610181573d5f803e3d5ffd5b505050506040513d601f19601f820116820180604052508101906101a5919061037b565b905090565b5f806101b46101e2565b90505f670de0b6b3a764000084836101cc91906103d3565b6101d69190610441565b90508092505050919050565b5f8060015f9054906101000a900473ffffffffffffffffffffffffffffffffffffffff1673ffffffffffffffffffffffffffffffffffffffff1663feaf968c6040518163ffffffff1660e01b815260040160a060405180830381865afa15801561024e573d5f803e3d5ffd5b505050506040513d601f19601f8201168201806040525081019061027291906104e3565b5050509150506402540be40081610289919061055a565b91505090565b5f5461029a346101aa565b10156102db576040517f08c379a00000000000000000000000000000000000000000000000000000000081526004016102d29061062a565b60405180910390fd5b565b5f819050919050565b6102ef816102dd565b82525050565b5f6020820190506103085f8301846102e6565b92915050565b5f80fd5b61031b816102dd565b8114610325575f80fd5b50565b5f8135905061033681610312565b92915050565b5f602082840312156103515761035061030e565b5b5f61035e84828501610328565b91505092915050565b5f8151905061037581610312565b92915050565b5f602082840312156103905761038f61030e565b5b5f61039d84828501610367565b91505092915050565b7f4e487b71000000000000000000000000000000000000000000000000000000005f52601160045260245ffd5b5f6103dd826102dd565b91506103e8836102dd565b92508282026103f6816102dd565b9150828204841483151761040d5761040c6103a6565b5b5092915050565b7f4e487b71000000000000000000000000000000000000000000000000000000005f52601260045260245ffd5b5f61044b826102dd565b9150610456836102dd565b92508261046657610465610414565b5b828204905092915050565b5f69ffffffffffffffffffff82169050919050565b61048f81610471565b8114610499575f80fd5b50565b5f815190506104aa81610486565b92915050565b5f819050919050565b6104c2816104b0565b81146104cc575f80fd5b50565b5f815190506104dd816104b9565b92915050565b5f805f805f60a086880312156104fc576104fb61030e565b5b5f6105098882890161049c565b955050602061051a888289016104cf565b945050604061052b88828901610367565b935050606061053c88828901610367565b925050608061054d8882890161049c565b9150509295509295909350565b5f610564826104b0565b915061056f836104b0565b925082820261057d816104b0565b91507f800000000000000000000000000000000000000000000000000000000000000084145f841216156105b4576105b36103a6565b5b82820584148315176105c9576105c86103a6565b5b5092915050565b5f82825260208201905092915050565b7f3120455448206174206c656173742069732072657175697265640000000000005f82015250565b5f610614601a836105d0565b915061061f826105e0565b602082019050919050565b5f6020820190508181035f83015261064181610608565b905091905056fea26469706673582212209b8d35dfc3514b95e967ff2f7a1c9c889dd819e09c11ab236af07854609d912464736f6c63430008160033",
			"opcodes": "PUSH1 0x80 PUSH1 0x40 MSTORE PUSH8 0xDE0B6B3A7640000 PUSH0 SSTORE CALLVALUE DUP1 ISZERO PUSH2 0x1A JUMPI PUSH0 DUP1 REVERT JUMPDEST POP PUSH20 0x694AA1769357215DE4FAC081BF1F309ADC325306 PUSH1 0x1 PUSH0 PUSH2 0x100 EXP DUP2 SLOAD DUP2 PUSH20 0xFFFFFFFFFFFFFFFFFFFFFFFFFFFFFFFFFFFFFFFF MUL NOT AND SWAP1 DUP4 PUSH20 0xFFFFFFFFFFFFFFFFFFFFFFFFFFFFFFFFFFFFFFFF AND MUL OR SWAP1 SSTORE POP PUSH2 0x67E DUP1 PUSH2 0x7C PUSH0 CODECOPY PUSH0 RETURN INVALID PUSH1 0x80 PUSH1 0x40 MSTORE PUSH1 0x4 CALLDATASIZE LT PUSH2 0x49 JUMPI PUSH0 CALLDATALOAD PUSH1 0xE0 SHR DUP1 PUSH4 0xB5B8331 EQ PUSH2 0x4D JUMPI DUP1 PUSH4 0xD8E6E2C EQ PUSH2 0x77 JUMPI DUP1 PUSH4 0x6E5B6B28 EQ PUSH2 0xA1 JUMPI DUP1 PUSH4 0x98D5FDCA EQ PUSH2 0xDD JUMPI DUP1 PUSH4 0xB60D4288 EQ PUSH2 0x107 JUMPI JUMPDEST PUSH0 DUP1 REVERT JUMPDEST CALLVALUE DUP1 ISZERO PUSH2 0x58 JUMPI PUSH0 DUP1 REVERT JUMPDEST POP PUSH2 0x61 PUSH2 0x111 JUMP JUMPDEST PUSH1 0x40 MLOAD PUSH2 0x6E SWAP2 SWAP1 PUSH2 0x2F5 JUMP JUMPDEST PUSH1 0x40 MLOAD DUP1 SWAP2 SUB SWAP1 RETURN JUMPDEST CALLVALUE DUP1 ISZERO PUSH2 0x82 JUMPI PUSH0 DUP1 REVERT JUMPDEST POP PUSH2 0x8B PUSH2 0x116 JUMP JUMPDEST PUSH1 0x40 MLOAD PUSH2 0x98 SWAP2 SWAP1 PUSH2 0x2F5 JUMP JUMPDEST PUSH1 0x40 MLOAD DUP1 SWAP2 SUB SWAP1 RETURN JUMPDEST CALLVALUE DUP1 ISZERO PUSH2 0xAC JUMPI PUSH0 DUP1 REVERT JUMPDEST POP PUSH2 0xC7 PUSH1 0x4 DUP1 CALLDATASIZE SUB DUP2 ADD SWAP1 PUSH2 0xC2 SWAP2 SWAP1 PUSH2 0x33C JUMP JUMPDEST PUSH2 0x1AA JUMP JUMPDEST PUSH1 0x40 MLOAD PUSH2 0xD4 SWAP2 SWAP1 PUSH2 0x2F5 JUMP JUMPDEST PUSH1 0x40 MLOAD DUP1 SWAP2 SUB SWAP1 RETURN JUMPDEST CALLVALUE DUP1 ISZERO PUSH2 0xE8 JUMPI PUSH0 DUP1 REVERT JUMPDEST POP PUSH2 0xF1 PUSH2 0x1E2 JUMP JUMPDEST PUSH1 0x40 MLOAD PUSH2 0xFE SWAP2 SWAP1 PUSH2 0x2F5 JUMP JUMPDEST PUSH1 0x40 MLOAD DUP1 SWAP2 SUB SWAP1 RETURN JUMPDEST PUSH2 0x10F PUSH2 0x28F JUMP JUMPDEST STOP JUMPDEST PUSH0 SLOAD DUP2 JUMP JUMPDEST PUSH0 PUSH1 0x1 PUSH0 SWAP1 SLOAD SWAP1 PUSH2 0x100 EXP SWAP1 DIV PUSH20 0xFFFFFFFFFFFFFFFFFFFFFFFFFFFFFFFFFFFFFFFF AND PUSH20 0xFFFFFFFFFFFFFFFFFFFFFFFFFFFFFFFFFFFFFFFF AND PUSH4 0x54FD4D50 PUSH1 0x40 MLOAD DUP2 PUSH4 0xFFFFFFFF AND PUSH1 0xE0 SHL DUP2 MSTORE PUSH1 0x4 ADD PUSH1 0x20 PUSH1 0x40 MLOAD DUP1 DUP4 SUB DUP2 DUP7 GAS STATICCALL ISZERO DUP1 ISZERO PUSH2 0x181 JUMPI RETURNDATASIZE PUSH0 DUP1 RETURNDATACOPY RETURNDATASIZE PUSH0 REVERT JUMPDEST POP POP POP POP PUSH1 0x40 MLOAD RETURNDATASIZE PUSH1 0x1F NOT PUSH1 0x1F DUP3 ADD AND DUP3 ADD DUP1 PUSH1 0x40 MSTORE POP DUP2 ADD SWAP1 PUSH2 0x1A5 SWAP2 SWAP1 PUSH2 0x37B JUMP JUMPDEST SWAP1 POP SWAP1 JUMP JUMPDEST PUSH0 DUP1 PUSH2 0x1B4 PUSH2 0x1E2 JUMP JUMPDEST SWAP1 POP PUSH0 PUSH8 0xDE0B6B3A7640000 DUP5 DUP4 PUSH2 0x1CC SWAP2 SWAP1 PUSH2 0x3D3 JUMP JUMPDEST PUSH2 0x1D6 SWAP2 SWAP1 PUSH2 0x441 JUMP JUMPDEST SWAP1 POP DUP1 SWAP3 POP POP POP SWAP2 SWAP1 POP JUMP JUMPDEST PUSH0 DUP1 PUSH1 0x1 PUSH0 SWAP1 SLOAD SWAP1 PUSH2 0x100 EXP SWAP1 DIV PUSH20 0xFFFFFFFFFFFFFFFFFFFFFFFFFFFFFFFFFFFFFFFF AND PUSH20 0xFFFFFFFFFFFFFFFFFFFFFFFFFFFFFFFFFFFFFFFF AND PUSH4 0xFEAF968C PUSH1 0x40 MLOAD DUP2 PUSH4 0xFFFFFFFF AND PUSH1 0xE0 SHL DUP2 MSTORE PUSH1 0x4 ADD PUSH1 0xA0 PUSH1 0x40 MLOAD DUP1 DUP4 SUB DUP2 DUP7 GAS STATICCALL ISZERO DUP1 ISZERO PUSH2 0x24E JUMPI RETURNDATASIZE PUSH0 DUP1 RETURNDATACOPY RETURNDATASIZE PUSH0 REVERT JUMPDEST POP POP POP POP PUSH1 0x40 MLOAD RETURNDATASIZE PUSH1 0x1F NOT PUSH1 0x1F DUP3 ADD AND DUP3 ADD DUP1 PUSH1 0x40 MSTORE POP DUP2 ADD SWAP1 PUSH2 0x272 SWAP2 SWAP1 PUSH2 0x4E3 JUMP JUMPDEST POP POP POP SWAP2 POP POP PUSH5 0x2540BE400 DUP2 PUSH2 0x289 SWAP2 SWAP1 PUSH2 0x55A JUMP JUMPDEST SWAP2 POP POP SWAP1 JUMP JUMPDEST PUSH0 SLOAD PUSH2 0x29A CALLVALUE PUSH2 0x1AA JUMP JUMPDEST LT ISZERO PUSH2 0x2DB JUMPI PUSH1 0x40 MLOAD PUSH32 0x8C379A000000000000000000000000000000000000000000000000000000000 DUP2 MSTORE PUSH1 0x4 ADD PUSH2 0x2D2 SWAP1 PUSH2 0x62A JUMP JUMPDEST PUSH1 0x40 MLOAD DUP1 SWAP2 SUB SWAP1 REVERT JUMPDEST JUMP JUMPDEST PUSH0 DUP2 SWAP1 POP SWAP2 SWAP1 POP JUMP JUMPDEST PUSH2 0x2EF DUP2 PUSH2 0x2DD JUMP JUMPDEST DUP3 MSTORE POP POP JUMP JUMPDEST PUSH0 PUSH1 0x20 DUP3 ADD SWAP1 POP PUSH2 0x308 PUSH0 DUP4 ADD DUP5 PUSH2 0x2E6 JUMP JUMPDEST SWAP3 SWAP2 POP POP JUMP JUMPDEST PUSH0 DUP1 REVERT JUMPDEST PUSH2 0x31B DUP2 PUSH2 0x2DD JUMP JUMPDEST DUP2 EQ PUSH2 0x325 JUMPI PUSH0 DUP1 REVERT JUMPDEST POP JUMP JUMPDEST PUSH0 DUP2 CALLDATALOAD SWAP1 POP PUSH2 0x336 DUP2 PUSH2 0x312 JUMP JUMPDEST SWAP3 SWAP2 POP POP JUMP JUMPDEST PUSH0 PUSH1 0x20 DUP3 DUP5 SUB SLT ISZERO PUSH2 0x351 JUMPI PUSH2 0x350 PUSH2 0x30E JUMP JUMPDEST JUMPDEST PUSH0 PUSH2 0x35E DUP5 DUP3 DUP6 ADD PUSH2 0x328 JUMP JUMPDEST SWAP2 POP POP SWAP3 SWAP2 POP POP JUMP JUMPDEST PUSH0 DUP2 MLOAD SWAP1 POP PUSH2 0x375 DUP2 PUSH2 0x312 JUMP JUMPDEST SWAP3 SWAP2 POP POP JUMP JUMPDEST PUSH0 PUSH1 0x20 DUP3 DUP5 SUB SLT ISZERO PUSH2 0x390 JUMPI PUSH2 0x38F PUSH2 0x30E JUMP JUMPDEST JUMPDEST PUSH0 PUSH2 0x39D DUP5 DUP3 DUP6 ADD PUSH2 0x367 JUMP JUMPDEST SWAP2 POP POP SWAP3 SWAP2 POP POP JUMP JUMPDEST PUSH32 0x4E487B7100000000000000000000000000000000000000000000000000000000 PUSH0 MSTORE PUSH1 0x11 PUSH1 0x4 MSTORE PUSH1 0x24 PUSH0 REVERT JUMPDEST PUSH0 PUSH2 0x3DD DUP3 PUSH2 0x2DD JUMP JUMPDEST SWAP2 POP PUSH2 0x3E8 DUP4 PUSH2 0x2DD JUMP JUMPDEST SWAP3 POP DUP3 DUP3 MUL PUSH2 0x3F6 DUP2 PUSH2 0x2DD JUMP JUMPDEST SWAP2 POP DUP3 DUP3 DIV DUP5 EQ DUP4 ISZERO OR PUSH2 0x40D JUMPI PUSH2 0x40C PUSH2 0x3A6 JUMP JUMPDEST JUMPDEST POP SWAP3 SWAP2 POP POP JUMP JUMPDEST PUSH32 0x4E487B7100000000000000000000000000000000000000000000000000000000 PUSH0 MSTORE PUSH1 0x12 PUSH1 0x4 MSTORE PUSH1 0x24 PUSH0 REVERT JUMPDEST PUSH0 PUSH2 0x44B DUP3 PUSH2 0x2DD JUMP JUMPDEST SWAP2 POP PUSH2 0x456 DUP4 PUSH2 0x2DD JUMP JUMPDEST SWAP3 POP DUP3 PUSH2 0x466 JUMPI PUSH2 0x465 PUSH2 0x414 JUMP JUMPDEST JUMPDEST DUP3 DUP3 DIV SWAP1 POP SWAP3 SWAP2 POP POP JUMP JUMPDEST PUSH0 PUSH10 0xFFFFFFFFFFFFFFFFFFFF DUP3 AND SWAP1 POP SWAP2 SWAP1 POP JUMP JUMPDEST PUSH2 0x48F DUP2 PUSH2 0x471 JUMP JUMPDEST DUP2 EQ PUSH2 0x499 JUMPI PUSH0 DUP1 REVERT JUMPDEST POP JUMP JUMPDEST PUSH0 DUP2 MLOAD SWAP1 POP PUSH2 0x4AA DUP2 PUSH2 0x486 JUMP JUMPDEST SWAP3 SWAP2 POP POP JUMP JUMPDEST PUSH0 DUP2 SWAP1 POP SWAP2 SWAP1 POP JUMP JUMPDEST PUSH2 0x4C2 DUP2 PUSH2 0x4B0 JUMP JUMPDEST DUP2 EQ PUSH2 0x4CC JUMPI PUSH0 DUP1 REVERT JUMPDEST POP JUMP JUMPDEST PUSH0 DUP2 MLOAD SWAP1 POP PUSH2 0x4DD DUP2 PUSH2 0x4B9 JUMP JUMPDEST SWAP3 SWAP2 POP POP JUMP JUMPDEST PUSH0 DUP1 PUSH0 DUP1 PUSH0 PUSH1 0xA0 DUP7 DUP9 SUB SLT ISZERO PUSH2 0x4FC JUMPI PUSH2 0x4FB PUSH2 0x30E JUMP JUMPDEST JUMPDEST PUSH0 PUSH2 0x509 DUP9 DUP3 DUP10 ADD PUSH2 0x49C JUMP JUMPDEST SWAP6 POP POP PUSH1 0x20 PUSH2 0x51A DUP9 DUP3 DUP10 ADD PUSH2 0x4CF JUMP JUMPDEST SWAP5 POP POP PUSH1 0x40 PUSH2 0x52B DUP9 DUP3 DUP10 ADD PUSH2 0x367 JUMP JUMPDEST SWAP4 POP POP PUSH1 0x60 PUSH2 0x53C DUP9 DUP3 DUP10 ADD PUSH2 0x367 JUMP JUMPDEST SWAP3 POP POP PUSH1 0x80 PUSH2 0x54D DUP9 DUP3 DUP10 ADD PUSH2 0x49C JUMP JUMPDEST SWAP2 POP POP SWAP3 SWAP6 POP SWAP3 SWAP6 SWAP1 SWAP4 POP JUMP JUMPDEST PUSH0 PUSH2 0x564 DUP3 PUSH2 0x4B0 JUMP JUMPDEST SWAP2 POP PUSH2 0x56F DUP4 PUSH2 0x4B0 JUMP JUMPDEST SWAP3 POP DUP3 DUP3 MUL PUSH2 0x57D DUP2 PUSH2 0x4B0 JUMP JUMPDEST SWAP2 POP PUSH32 0x8000000000000000000000000000000000000000000000000000000000000000 DUP5 EQ PUSH0 DUP5 SLT AND ISZERO PUSH2 0x5B4 JUMPI PUSH2 0x5B3 PUSH2 0x3A6 JUMP JUMPDEST JUMPDEST DUP3 DUP3 SDIV DUP5 EQ DUP4 ISZERO OR PUSH2 0x5C9 JUMPI PUSH2 0x5C8 PUSH2 0x3A6 JUMP JUMPDEST JUMPDEST POP SWAP3 SWAP2 POP POP JUMP JUMPDEST PUSH0 DUP3 DUP3 MSTORE PUSH1 0x20 DUP3 ADD SWAP1 POP SWAP3 SWAP2 POP POP JUMP JUMPDEST PUSH32 0x3120455448206174206C65617374206973207265717569726564000000000000 PUSH0 DUP3 ADD MSTORE POP JUMP JUMPDEST PUSH0 PUSH2 0x614 PUSH1 0x1A DUP4 PUSH2 0x5D0 JUMP JUMPDEST SWAP2 POP PUSH2 0x61F DUP3 PUSH2 0x5E0 JUMP JUMPDEST PUSH1 0x20 DUP3 ADD SWAP1 POP SWAP2 SWAP1 POP JUMP JUMPDEST PUSH0 PUSH1 0x20 DUP3 ADD SWAP1 POP DUP2 DUP2 SUB PUSH0 DUP4 ADD MSTORE PUSH2 0x641 DUP2 PUSH2 0x608 JUMP JUMPDEST SWAP1 POP SWAP2 SWAP1 POP JUMP INVALID LOG2 PUSH5 0x6970667358 0x22 SLT KECCAK256 SWAP12 DUP14 CALLDATALOAD 0xDF 0xC3 MLOAD 0x4B SWAP6 0xE9 PUSH8 0xFF2F7A1C9C889DD8 NOT 0xE0 SWAP13 GT 0xAB 0x23 PUSH11 0xF07854609D912464736F6C PUSH4 0x43000816 STOP CALLER "
		},
		"gasEstimates": {
			"creation": {
				"codeDepositCost": "332400",
				"executionCost": "46737",
				"totalCost": "379137"
			},
			"external": {
				"fund()": "infinite",
				"getConversionRate(uint256)": "infinite",
				"getPrice()": "infinite",
				"getVersion()": "infinite",
				"miniumUsd()": "2402"
			}
		},
		"methodIdentifiers": {
			"fund()": "b60d4288",
			"getConversionRate(uint256)": "6e5b6b28",
			"getPrice()": "98d5fdca",
			"getVersion()": "0d8e6e2c",
			"miniumUsd()": "0b5b8331"
		}
	},
	"abi": [
		{
			"inputs": [],
			"stateMutability": "nonpayable",
			"type": "constructor"
		},
		{
			"inputs": [],
			"name": "fund",
			"outputs": [],
			"stateMutability": "payable",
			"type": "function"
		},
		{
			"inputs": [
				{
					"internalType": "uint256",
					"name": "ethAmount",
					"type": "uint256"
				}
			],
			"name": "getConversionRate",
			"outputs": [
				{
					"internalType": "uint256",
					"name": "",
					"type": "uint256"
				}
			],
			"stateMutability": "view",
			"type": "function"
		},
		{
			"inputs": [],
			"name": "getPrice",
			"outputs": [
				{
					"internalType": "uint256",
					"name": "",
					"type": "uint256"
				}
			],
			"stateMutability": "view",
			"type": "function"
		},
		{
			"inputs": [],
			"name": "getVersion",
			"outputs": [
				{
					"internalType": "uint256",
					"name": "",
					"type": "uint256"
				}
			],
			"stateMutability": "view",
			"type": "function"
		},
		{
			"inputs": [],
			"name": "miniumUsd",
			"outputs": [
				{
					"internalType": "uint256",
					"name": "",
					"type": "uint256"
				}
			],
			"stateMutability": "view",
			"type": "function"
		}
	]
}